:020000040800F2
:10000000005000204D0100089501000895010008EE
:100010009501000895010008950100080000000006
:100020000000000000000000000000009501000832
:10003000950100080000000095010008711B0008F0
:100040009501000895010008950100089501000838
:100050009501000895010008950100089501000828
:10006000950100089501000895010008811B000812
:100070009501000895010008950100089501000808
:100080009501000895010008951B000895010008DE
:1000900095010008950100089501000895010008E8
:1000A00095010008950100089501000895010008D8
:1000B000A91B00089501000895010008950100089A
:1000C00095010008950100089501000895010008B8
:1000D000950100089501000895010008BD1B000866
:1000E000D11B0008950100089501000800000000E0
:1000F0000000000000000000000000000000000000
:0C01000000000000000000005FF808F1A3
:10010C0010B5054C237833B9044B13B10448AFF345
:10011C0000800123237010BD0C00002000000000A3
:10012C00F873000808B5034B1BB103490348AFF340
:10013C00008008BD0000000010000020F8730008CB
:10014C00002103E00B4B5B58435004310A480B4B26
:10015C0042189A42F6D30A4A02E0002342F8043BC2
:10016C00084B9A42F9D301F08FFF07F01BF900F00E
:10017C00F5F9704738770008000000200C000020CB
:10018C000C00002040020020FEE7000080B58AB081
:10019C0000AF484B484A1A60464B4FF480729A6045
:1001AC00444B0022DA60434B00225A61414B4FF41E
:1001BC006022DA613F4B00225A603E4B05221A61E5
:1001CC003C4802F005F80346002B03D046213B487F
:1001DC0001F066FC3A4B3B6140F6FF73FB6140F665
:1001EC003B133B620F237B610123BB6107F11003BF
:1001FC001946304802F024FE0346002B03D052214E
:10020C002E4801F04DFC09237B600123BB600723C2
:10021C00FB603B1D1946274802F04EFC0346002BA1
:10022C0003D05C21254801F03BFC0C237B600223AE
:10023C00BB603B1D19461F4802F03EFC0346002BD9
:10024C0003D065211D4801F02BFC0D237B6003239B
:10025C00BB603B1D1946174802F02EFC0346002BD1
:10026C0003D06E21154801F01BFC0E237B60042388
:10027C00BB603B1D19460F4802F01EFC0346002BC9
:10028C0003D077210D4801F00BFC0F237B60052375
:10029C00BB603B1D1946074802F00EFC0346002BC1
:1002AC0003D08021054801F0FBFB00BF2837BD4679
:1002BC0080BD00BF680000200024014010740008BD
:1002CC000002800080B588B000AF78607B681B6846
:1002DC002C4A934251D12C4A2B4B9B6943F400730B
:1002EC009361294B9B6903F40073FB60FB683C230F
:1002FC003B6103237B6107F110031946234803F08C
:10030C006FFC02233B6103237B6107F11003194649
:10031C001F4803F065FC1F4B1F4A1A601D4B00223F
:10032C005A601C4B00229A601A4B8022DA60194BDF
:10033C004FF480721A61174B4FF480625A61154B5F
:10034C0020229A61134B0022DA61124803F0E6F87E
:10035C000346002B03D0AC21104801F0A1FB7B68B5
:10036C000C4A1A620B4A7B6853620022002112204D
:10037C0003F050F8122003F079F800BF2037BD4687
:10038C0080BD00BF0024014000100240001001405D
:10039C00000C014098000020080002401074000876
:1003AC0080B582B000AF0C4A0B4B5B6943F0010384
:1003BC005361094B5B6903F001037B607B6800228E
:1003CC0000210B2003F026F80B2003F04FF800BFA0
:1003DC000837BD4680BD00BF0010024080B588B014
:1003EC0000AF584A574B9B6943F010039361554B30
:1003FC009B6903F01003FB60FB68524A514B9B69ED
:10040C0043F0200393614F4B9B6903F02003BB60C7
:10041C00BB684C4A4B4B9B6943F004039361494BBB
:10042C009B6903F004037B607B68464A454B9B69E0
:10043C0043F008039361434B9B6903F008033B6053
:10044C003B6800224FF481513F4803F0FDFD002230
:10045C004DF204013D4803F0F7FD00224FF480718A
:10046C003B4803F0F1FD4FF400533B61394B7B618A
:10047C000023BB6107F110031946354803F0B0FBAC
:10048C0041F2C3233B6103237B6107F1100319463F
:10049C002F4803F0A5FB40F6D3733B6103237B612C
:1004AC0007F110031946284803F09AFB0C233B6113
:1004BC0002237B610223FB6107F1100319462248DA
:1004CC0003F08EFB4FF481533B6101237B610223CC
:1004DC00FB6107F1100319461B4803F081FB42F244
:1004EC0001733B6103237B6107F110031946174825
:1004FC0003F076FB4DF204033B6101237B61022385
:10050C00FB6107F110031946104803F069FB4FF427
:10051C0080733B6101237B610223FB6107F11003B4
:10052C0019460B4803F05CFB04233B6103237B61FE
:10053C0007F110031946084803F052FB00BF20379F
:10054C00BD4680BD0010024000080140000C014077
:10055C0000100140000021100014014080B500AFD4
:10056C0001F0C6FD1E4B00221A6000F04BF8FFF79D
:10057C0035FFFFF715FFFFF709FE01F02BFB01F02C
:10058C00A3FB01F0F1FB01F003FD00F09BF801F07F
:10059C0011FE0C21134804F0CFFD0021114804F08A
:1005AC00CBFD114B01221A70104B01221A700D4811
:1005BC0004F0F8FC18210E4805F04EF818210D48EF
:1005CC0005F04AF801220C490C4806F015FB0C48C2
:1005DC0001F068FF00F08AF800F090FDFAE700BF28
:1005EC00E0000020BC010020DC00002028000020DE
:1005FC007C0100203C0100202C010020FC0100208B
:10060C006800002080B594B000AF0223BB620123C8
:10061C00BB631023FB6302237B640023BB644FF496
:10062C006013FB6407F12803184603F07FFD0346B3
:10063C00002B03D0DF21214801F032FA0F237B611C
:10064C000223BB610023FB614FF480633B620023F8
:10065C007B6207F114030221184604F0C3F8034629
:10066C00002B03D0ED21154801F01AFA02237B6010
:10067C004FF44043FB603B1D184604F007FB034658
:10068C00002B03D0F4210D4801F00AFA04F0AEFA65
:10069C0002460B4BA3FB02239B09184602F0FEFEFD
:1006AC00042002F007FF002200214FF0FF3002F07F
:1006BC00B1FE00BF5037BD4680BD00BF247400089A
:1006CC00D34D621080B500AF00220021282002F02B
:1006DC00A1FE282002F0CAFE00220021272002F0F1
:1006EC0099FE272002F0C2FE00BF80BD80B400AF8F
:1006FC00A24B1B78DBB2002B00F0EF849F4B002247
:10070C001A709F4B1B78DBB2052B00F2E68401A21A
:10071C0052F823F05707000839070008670700084C
:10072C00D1090008310C0008770E0008954B002207
:10073C001A80944B1A88944B1A80944B00221A708E
:10074C00934B00221A7000F0C8BC904B01221A7017
:10075C008F4B00221A7000F0C0BC8C4B1B780D2BF9
:10076C0000F2B48401A252F823F000BFB1070008D4
:10077C00BF070008E50700080B080008310800084F
:10078C00570800087D080008A3080008C9080008DD
:10079C00EF080008150900083B090008610900086A
:1007AC00A9090008794B00221A70794B00221A70A3
:1007BC0007E1784B01221A80774B01221A80714B8A
:1007CC0026221A80704B26221A80704B02221A7035
:1007DC006F4B01221A70F4E06E4B01221A806E4BA3
:1007EC0001221A80674B38221A80674B38221A80F4
:1007FC00664B03221A70664B01221A70E1E0654BBE
:10080C0001221A80644B01221A805E4B4C221A8002
:10081C005D4B4C221A805D4B04221A705C4B0122FA
:10082C001A70CEE05B4B01221A805B4B01221A80BE
:10083C00544B4C221A80544B4C221A80534B04229A
:10084C001A70534B01221A70BBE0524B00221A80D3
:10085C00514B00221A804B4B00221A804A4B00222B
:10086C001A804A4B01221A70494B00221A70A8E0D8
:10087C00484B00221A80484B00221A80414B2622FA
:10088C001A80414B26221A80404B05221A70404B8D
:10089C0001221A7095E03F4B00221A803E4B002239
:1008AC001A80384B38221A80374B38221A80374B33
:1008BC0006221A70364B01221A7082E0354B012247
:1008CC001A80354B01221A802E4B26221A802E4B71
:1008DC0026221A802D4B02221A702D4B01221A70DF
:1008EC006FE02C4B01221A802B4B01221A80254BD6
:1008FC0038221A80244B38221A80244B03221A7077
:10090C00234B01221A705CE0224B01221A80224BED
:10091C0001221A801B4B4C221A801B4B4C221A8032
:10092C001A4B04221A701A4B01221A7049E0194B07
:10093C0001221A80184B01221A80124B26221A808F
:10094C00114B26221A80114B03221A70104B0122D4
:10095C001A7036E00F4B01221A800F4B01221A80BD
:10096C00084B38221A80084B38221A80074B032276
:10097C001A70074B01221A7023E000BF28000020D8
:10098C00DC0000203600002034000020480000204D
:10099C00F200002000010020E40000209B4B01220B
:1009AC001A809B4B01221A809A4B4C221A809A4B2C
:1009BC004C221A80994B04221A70994B01221A70FE
:1009CC0000BF83E3954B1B780D2B00F2818301A2B2
:1009DC0052F823F0190A0008270A00084D0A0008EB
:1009EC00730A0008990A0008BF0A0008E50A000803
:1009FC000B0B0008310B0008570B00087D0B00088F
:100A0C00A30B0008C90B0008EF0B0008834B002256
:100A1C001A70834B00221A70F6E07C4B00221A806D
:100A2C007B4B00221A807B4B26221A807A4B262283
:100A3C001A807A4B05221A70794B01221A70E3E066
:100A4C00724B01221A80724B01221A80714B0022C8
:100A5C001A80714B00221A80704B01221A70704B55
:100A6C0000221A70D0E0694B01221A80684B0122D7
:100A7C001A80684B26221A80674B26221A80674BF5
:100A8C0002221A70664B01221A70BDE05F4B0122E4
:100A9C001A805F4B01221A805E4B38221A805E4B03
:100AAC0038221A805D4B03221A705D4B01221A709A
:100ABC00AAE0564B00221A80554B00221A80554B47
:100ACC0038221A80544B38221A80544B06221A7042
:100ADC00534B01221A7097E04C4B00221A804C4B5E
:100AEC0000221A804B4B4C221A804B4B4C221A8002
:100AFC004A4B07221A704A4B01221A7084E0434B6E
:100B0C0000221A80424B00221A80424B4C221A803F
:100B1C00414B4C221A80414B07221A70404B012248
:100B2C001A7071E0394B00221A80394B00221A805E
:100B3C00384B26221A80384B26221A80374B052236
:100B4C001A70374B01221A705EE0304B00221A806B
:100B5C002F4B00221A802F4B38221A802E4B382212
:100B6C001A802E4B06221A702D4B01221A704BE064
:100B7C00264B00221A80264B00221A80254B4C2231
:100B8C001A80254B4C221A80244B07221A70244BB6
:100B9C0001221A7038E01D4B00221A801C4B0022D7
:100BAC001A801C4B26221A801B4B26221A801B4BA8
:100BBC0005221A701A4B01221A7025E0134B0022E1
:100BCC001A80134B00221A80124B38221A80124BB7
:100BDC0038221A80114B06221A70114B01221A70FE
:100BEC0012E00A4B00221A80094B00221A80094B92
:100BFC004C221A80084B4C221A80084B07221A7080
:100C0C00074B01221A7000BF62E200BF00010020F6
:100C1C00E4000020360000203400002048000020B2
:100C2C00F2000020A74B1B780D2B00F2538201A27F
:100C3C0052F823F0790C0008870C0008AD0C000862
:100C4C00D30C0008F90C00081F0D0008450D000816
:100C5C006B0D0008910D0008B70D0008DD0D0008A4
:100C6C00030E0008290E00084F0E0008954B0022B9
:100C7C001A70954B00221A70F6E0944B01221A80E0
:100C8C00934B00221A80934B26221A80924B2622D9
:100C9C001A808C4B08221A708B4B01221A70E3E0DD
:100CAC008A4B01221A808A4B00221A80894B2622F9
:100CBC001A80894B26221A80824B08221A70824B8A
:100CCC0001221A70D0E0814B01221A80804B002245
:100CDC001A80804B38221A807F4B38221A80794B2D
:100CEC0009221A70784B01221A70BDE0774B012251
:100CFC001A80774B00221A80764B4C221A80764B46
:100D0C004C221A806F4B0A221A706F4B01221A70F8
:100D1C00AAE06E4B01221A806D4B00221A806D4B9B
:100D2C0026221A806C4B26221A80664B08221A70D7
:100D3C00654B01221A7097E0644B01221A80644BB8
:100D4C0000221A80634B38221A80634B38221A8097
:100D5C005C4B09221A705C4B01221A7084E05B4BCD
:100D6C0001221A805A4B00221A805A4B4C221A80AC
:100D7C00594B4C221A80534B0A221A70524B0122A7
:100D8C001A7071E0514B01221A80514B00221A80CB
:100D9C00504B38221A80504B38221A80494B09226A
:100DAC001A70494B01221A705EE0484B01221A80DE
:100DBC00474B00221A80474B4C221A80464B4C2240
:100DCC001A80404B0A221A703F4B01221A704BE0DA
:100DDC003E4B01221A803E4B00221A803D4B4C2286
:100DEC001A803D4B4C221A80364B0A221A70364B15
:100DFC0001221A7038E0354B00221A80344B002245
:100E0C001A80344B00221A80334B00221A802D4B4F
:100E1C0001221A702C4B00221A7025E02B4B002259
:100E2C001A802B4B01221A802A4B26221A802A4B1D
:100E3C0026221A80234B0B221A70234B01221A7084
:100E4C0012E0224B00221A80214B01221A80214BE6
:100E5C0038221A80204B38221A801A4B0C221A7016
:100E6C00194B01221A7000BF34E1164B1B780D2B65
:100E7C0000F2328101A252F823F000BFC10E00082B
:100E8C00E90E00080F0F0008350F00085B0F000873
:100E9C00810F0008A70F0008CD0F0008F30F000802
:100EAC00191000083F100008651000088B1000088E
:100EBC00B1100008034B00221A70034B00221A7069
:100ECC0003E100BF48000020F200002000010020D8
:100EDC00E40000203600002034000020814B00226A
:100EEC001A80814B01221A80804B26221A80804B5B
:100EFC0026221A807F4B0B221A707F4B01221A700C
:100F0C00E3E0784B00221A80774B01221A80774B52
:100F1C0026221A80764B26221A80764B0B221A70C8
:100F2C00754B01221A70D0E06E4B00221A806E4B6A
:100F3C0001221A806D4B38221A806D4B38221A8090
:100F4C006C4B0C221A706C4B01221A70BDE0654B75
:100F5C0000221A80644B01221A80644B4C221A80A6
:100F6C00634B4C221A80634B0D221A70624B012288
:100F7C001A70AAE05B4B00221A805B4B01221A808C
:100F8C005A4B26221A805A4B26221A80594B0B2276
:100F9C001A70594B01221A7097E0524B00221A809A
:100FAC00514B01221A80514B38221A80504B382257
:100FBC001A80504B0C221A704F4B01221A7084E08D
:100FCC00484B00221A80484B01221A80474B4C2276
:100FDC001A80474B4C221A80464B0D221A70464BF6
:100FEC0001221A7071E03F4B00221A803E4B002206
:100FFC001A803E4B00221A803D4B00221A803D4B3A
:10100C0001221A703C4B00221A705EE0354B012213
:10101C001A80354B00221A80344B26221A80344B0E
:10102C0026221A80334B08221A70334B01221A7075
:10103C004BE02C4B01221A802B4B00221A802B4B9D
:10104C0038221A802A4B38221A802A4B09221A700D
:10105C00294B01221A7038E0224B00221A80224BB5
:10106C0001221A80214B38221A80214B38221A80F7
:10107C00204B0C221A70204B01221A7025E0194BC0
:10108C0000221A80184B01221A80184B4C221A800D
:10109C00174B4C221A80174B0D221A70164B01223B
:1010AC001A7012E00F4B00221A800F4B01221A808B
:1010BC000E4B4C221A800E4B4C221A800D4B0D22DB
:1010CC001A700D4B01221A7000BF05E000BF04E03E
:1010DC0000BF02E000BF00E000BF00BFBD4680BC07
:1010EC00704700BF00010020E40000203600002003
:1010FC003400002048000020F200002080B500AF32
:10110C00074B1B68632B08D9054B00221A6000F0B3
:10111C0009F800F0A3F900F0FDF900BF80BD00BF95
:10112C003000002080B400AF954B1B78002B02D010
:10113C00012B1AD079E1934B1B78DBB2012B03D135
:10114C008F4B01221A7070E18F4B1A888F4B1A80CB
:10115C008F4B1A888F4B1A808F4B1A888F4B1A80A3
:10116C008F4B1A888F4B1A805FE1864B1B78DBB252
:10117C00002B02D1824B00221A70874B1B88012B4B
:10118C0040F08B80864B1B88012B40F08680864B71
:10119C001B889BB21A46854B1B88C3F57A730333A5
:1011AC009A4222DA824B1B889BB21A46814B1B88CF
:1011BC00C3F58E6306339A4217DA734B1A88734B56
:1011CC001A80734B1A88734B1A80734B1A88734BA3
:1011DC001A80734B1A88734B1A80764B00221A8034
:1011EC00744B1A88714B1A8056E06F4B1B889BB25C
:1011FC0040F2EA32934216D86D4B1B889BB240F2F8
:10120C00764293420FD9614B26221A80614B2622DB
:10121C001A80644B01221A80604B00221A80654BA5
:10122C0050221A8038E0604B1B889BB2B3F57B7F51
:10123C0016D35F4B1B889BB240F2754293420FD87A
:10124C00524B26221A80534B26221A80534B0122D2
:10125C001A80544B00221A80544B50221A801BE0E7
:10126C00514B1B889BB2B3F57B7FC0F0DA80504B9F
:10127C001B889BB240F27642934240F2D280434BA1
:10128C0000221A80434B00221A80444B00221A8001
:10129C00444B00221A80C4E0C3E03F4B1B88002B58
:1012AC0040F0AE803E4B1B88002B40F0A980424B97
:1012BC001B889BB21A46414B1B88C3F588630533C8
:1012CC009A4222DA3E4B1B889BB21A463D4B1B8836
:1012DC00C3F5A16301339A4217DA2B4B1A882B4BB7
:1012EC001A802B4B1A882B4B1A802B4B1A882B4BA2
:1012FC001A802B4B1A882B4B1A80324B00221A80E7
:10130C00304B1A882D4B1A8079E02B4B1B889BB2E3
:10131C0040F24542934215D9294B1B889BB2B3F539
:10132C00A16F0FD8194B26221A801A4B26221A802D
:10133C001A4B01221A801B4B00221A801F4B502281
:10134C001A805CE01C4B1B889BB240F244429342D7
:10135C003AD81B4B1B889BB240F20952934233D9AB
:10136C000A4B26221A800B4B26221A800D4B012287
:10137C001A800A4B00221A80124B50221A803EE02F
:10138C0049000020F2000020340000202E01002033
:10139C0036000020E6000020E4000020DE000020E3
:1013AC00000100202A010020380100204A00002002
:1013BC00EE0000204C000020EA0000204E0000202F
:1013CC0030010020500000201A4B1B889BB240F2C9
:1013DC004542934227D9184B1B889BB240F20952C5
:1013EC00934220D9154B00221A80154B00221A80EB
:1013FC00144B00221A80144B00221A8013E012E0C6
:10140C00124B1A880D4B1A80114B1A880C4B1A80F0
:10141C00104B1A880B4B1A800F4B1A880A4B1A80E8
:10142C0002E000BF00E000BF00BF00BFBD4680BCB3
:10143C00704700BFEA000020300100202E01002080
:10144C00E6000020DE0000202A01002034000020ED
:10145C0036000020E40000200001002080B400AF22
:10146C00214B1B685B6A9AB2204B1A80204B1B687D
:10147C005B6A9AB21F4B1A801C4B1B881A461E4B78
:10148C001B88D31A002BB8BF5B429AB21B4B1A8035
:10149C00184B1B881A461A4B1B88D31A002BB8BF43
:1014AC005B429AB2174B1A80104B1A88124B1A8057
:1014BC00104B1A88124B1A80134B1A88134B1B882B
:1014CC009A420CD10D4B1B881A460E4B1B881344A9
:1014DC005B101A460E4B1B6813440D4A136000BF79
:1014EC00BD4680BC704700BF7C010020F800002086
:1014FC003C010020EC0000203800002028010020D6
:10150C003A000020E8000020DE0000202A01002024
:10151C004400002080B584B000AF6423FB816423B9
:10152C00BB8150237B8150233B810023FB80002314
:10153C00BB809B4B1B78002B02D0012B4DD02BE199
:10154C00984B1B78DBB2012B03D1954B01221A70FF
:10155C0022E1954B1B6834330C3300221A60924BFA
:10156C001B6800225A630C218F4803F05DFE00219A
:10157C008D4803F059FE00224FF480518B4802F045
:10158C0063FD00224FF48041894802F05DFD00228A
:10159C004FF48051864802F057FD00224FF4004171
:1015AC00834802F051FD0121012002F097FD7E4B92
:1015BC001B6834330C3300221A607B4B1B680022EF
:1015CC005A630C21784803F0B7FD0021764803F0EC
:1015DC00B3FD784B00221A60DEE0774B1B88002BA2
:1015EC0006D0764B1B88002B02D0724B00221A605F
:1015FC006C4B1B78DBB2002B10D1714B1B88002B72
:10160C000CD1704B1B88002B08D16A4B1B68B3F5AF
:10161C007A7F03D9624B00221A70BCE0664B1A88A1
:10162C00674B1B88D31A9BB21AB2674B1A80634B59
:10163C001A88644B1B88D31A9BB21AB2634B1A805C
:10164C00634BB3F900309AB25F4BB3F900309BB2E5
:10165C0013449BB21AB25E4B1A805E4BB3F9003046
:10166C009AB25A4BB3F900309BB213449BB21AB2E4
:10167C00584B1A80544BB3F900309AB2564BB3F90D
:10168C0000309BB2D31A9BB21AB2544B1A804F4BF8
:10169C00B3F900309AB2524BB3F900309BB2D31A63
:1016AC009BB21AB24F4B1A80474BB3F900204A4BEE
:1016BC001A80464BB3F90020494B1A80FB89424AE9
:1016CC00B2F9002002FB03F27B894149B1F9001009
:1016DC0001FB03F31A44FB884049B1F9001001FBEC
:1016EC0003F313441A46404B1A60BB89374AB2F9CC
:1016FC00002002FB03F23B893649B1F9001001FBD3
:10170C0003F31A44BB883749B1F9001001FB03F30A
:10171C0013441A46354B1A60334B1B68002B02DA04
:10172C00314B00221A60314B1B68002B02DA2F4B15
:10173C0000221A602C4B1B68B3F57A4F03DD2A4B41
:10174C004FF47A421A60294B1B68B3F57A4F03DDCC
:10175C00264B4FF47A421A60134B1B68234A1268CB
:10176C0092B25A63104B1B6834330C331E4A126806
:10177C0092B21A601E4B1B88DBB21A464FF4807172
:10178C001C4802F061FC1C4B1B88DBB21A4604217E
:10179C00074802F059FC00BF00BF1037BD4680BDA2
:1017AC0052000020F2000020BC0100200008014083
:1017BC00000C01402C0000202E010020E60000202F
:1017CC0028010020E80000205400002056000020D2
:1017DC00580000205A0000205C0000205E00002011
:1017EC0060000020620000203C000020400000202F
:1017FC00DE000020001001402A01002080B582B0DC
:10180C0000AF78607B681B68254A934244D1254B16
:10181C001B78423B102B35D801A252F823F000BFA5
:10182C0079180008911800089918000891180008F8
:10183C0071180008911800089118000891180008F8
:10184C0091180008911800088118000891180008D8
:10185C0091180008911800089118000891180008B8
:10186C0089180008104B02221A7010E00E4B03224C
:10187C001A700CE00C4B05221A7008E00A4B04227B
:10188C001A7004E0094B01221A7000E000BF01221B
:10189C000449074805F0B0F900BF0837BD4680BDC4
:1018AC00004800402C010020DC0000202800002013
:1018BC00FC01002080B582B000AF7860194B1A880B
:1018CC00184B5B89D31A9AB2174B1A80154BDA88CE
:1018DC00144B1B8AD31A9AB2144B1A80114B5A8888
:1018EC00104B9B89D31A9AB2114B1A800D4B9A88C4
:1018FC000C4BDB89D31A9AB20E4B1A80094B1B89FD
:10190C001A46084B5B8A1344DA0F13445B109AB2E5
:10191C00094B1A80786800F077FF00BF0837BD4686
:10192C0080BD00BF14010020EA000020300100201F
:10193C0038010020EE000020F000002080B582B0BD
:10194C0000AF78607B681B68B3F1804F62D1334B7A
:10195C001B780133DAB2314B1A70314B1B680133EF
:10196C002F4A13602F4B1B6801332E4A13602B4BED
:10197C001B78013B032B49D801A252F823F000BF7E
:10198C009D190008CF190008DB1900080D1A000872
:10199C0001224FF48051244802F056FB01224FF4EF
:1019AC008041224802F050FB01224FF480511F4825
:1019BC0002F04AFB01224FF400411C4802F044FBA8
:1019CC0028E00A221A491B4800F034FE22E00022CB
:1019DC004FF48051144802F037FB00224FF4804141
:1019EC00124802F031FB00224FF480510F4802F0F4
:1019FC002BFB00224FF400410C4802F025FB09E0C0
:101A0C000A220B490B4800F015FE03E0034B0022A1
:101A1C001A70FFE700BF0837BD4680BD6400002088
:101A2C002C0000203000002000080140000C014078
:101A3C00140100206800002080B483B000AF03467E
:101A4C00FB800C4B1B78002B03D00B4B01221A7024
:101A5C0002E0094B00221A70064B1B78DB43DAB20A
:101A6C00044B1A70054B01221A7000BF0C37BD468F
:101A7C0080BC704765000020DC000020280000209E
:101A8C0080B582B000AF786001222021034802F0BB
:101A9C00DBFA00BF0837BD4680BD00BF000801401F
:101AAC0080B483B000AF78603960FEE780B483B057
:101ABC0000AF7860396000BF0C37BD4680BC704702
:101ACC0080B582B000AF254A244B9B6943F00103DB
:101ADC009361224B9B6903F001033B603B6803203D
:101AEC0001F078FC002200216FF00B0001F092FC59
:101AFC00002200216FF00A0001F08CFC0022002172
:101B0C006FF0090001F086FC002200216FF0040048
:101B1C0001F080FC002200216FF0030001F07AFC40
:101B2C00002200216FF0010001F074FC0022002162
:101B3C004FF0FF3001F06EFC094B5B687B607B68FB
:101B4C0023F0E0637B607B6843F000737B60044AA6
:101B5C007B68536000BF0837BD4680BD0010024053
:101B6C000000014080B500AF00F008FB01F0CAFC9A
:101B7C0000BF80BD80B500AF024801F0F1FE00BF90
:101B8C0080BD00BF9800002080B500AF024800F077
:101B9C008FFE00BF80BD00BF6800002080B500AF85
:101BAC00024803F0B1FD00BF80BD00BFBC010020A6
:101BBC0080B500AF024805F073F800BF80BD00BFD0
:101BCC00FC01002080B500AF4FF4005002F06EFA1B
:101BDC0000BF80BD80B58EB000AF394B4FF0804256
:101BEC001A60374B01225A60354B00229A60344BF5
:101BFC004FF47A42DA60324B00221A61304B0022E9
:101C0C009A612F4803F04CF90346002B03D0442172
:101C1C002C48FFF745FF4FF48053BB6207F12803B4
:101C2C001946274803F0E6FF0346002B03D04A2150
:101C3C002448FFF735FF224803F0EEF90346002B4A
:101C4C0003D04F211F48FFF72BFF00233B620023DB
:101C5C007B6207F120031946194804F07DFE034608
:101C6C00002B03D056211748FFF71AFF60237B6027
:101C7C000023BB600023FB6000237B613B1D002223
:101C8C0019460F4803F048FE0346002B03D05F2192
:101C9C000C48FFF705FF3B1D0C221946084803F0C2
:101CAC003BFE0346002B03D064210648FFF7F8FEE9
:101CBC00034800F02DF900BF3837BD4680BD00BF8A
:101CCC00BC0100203874000880B58CB000AF234BE9
:101CDC00234A1A60214B00225A60204B00229A6042
:101CEC001E4B4FF6FF72DA601C4B00221A611B4B25
:101CFC0080229A610323FB6000233B6101237B61FB
:101D0C000023BB610823FB6100233B6201237B6240
:101D1C000023BB620823FB6207F10C0319460F4832
:101D2C0003F01EFB0346002B03D081210D48FFF767
:101D3C00B7FE00237B600023BB603B1D19460748A0
:101D4C0004F00AFE0346002B03D088210548FFF758
:101D5C00A7FE00BF3037BD4680BD00BF7C01002010
:101D6C00000400403874000880B58CB000AF234BE1
:101D7C00234A1A60214B00225A60204B00229A60A1
:101D8C001E4B4FF6FF72DA601C4B00221A611B4B84
:101D9C0080229A610323FB6000233B6101237B615A
:101DAC000023BB610823FB6100233B6201237B62A0
:101DBC000023BB620823FB6207F10C0319460F4892
:101DCC0003F0CEFA0346002B03D0A3210D48FFF7F6
:101DDC0067FE00237B600023BB603B1D1946074850
:101DEC0004F0BAFD0346002B03D0AA210548FFF7E7
:101DFC0057FE00BF3037BD4680BD00BF3C01002000
:101E0C00000800403874000880B584B000AF7860DA
:101E1C007B681B68B3F1804F13D10C4A0B4BDB6909
:101E2C0043F00103D361094BDB6903F00103FB6051
:101E3C00FB68002200211C2001F0ECFA1C2001F0B0
:101E4C0015FB00BF1037BD4680BD00BF001002401F
:101E5C0080B58AB000AF78607B681B68274A9342D4
:101E6C002AD1274A264BDB6943F00203D361244B6A
:101E7C00DB6903F002033B613B6930237B61002388
:101E8C00BB610023FB6107F1140319461D4801F0E7
:101E9C00A7FE1D4B5B687B627B6A23F440637B620D
:101EAC007B6A43F0E0637B627B6A43F400637B6292
:101EBC00154A7B6A53601CE07B681B68134A93428B
:101ECC0017D10F4A0E4BDB6943F00403D3610C4B63
:101EDC00DB6903F00403FB60FB68C0237B61002318
:101EEC00BB610023FB6107F114031946054801F09F
:101EFC0077FE00BF2837BD4680BD00BF0004004000
:101F0C0000100240000C014000000140000800409D
:101F1C0080B588B000AF78607B681B68B3F1804FE8
:101F2C002BD14FF40063FB6002233B610223BB61A6
:101F3C0007F10C031946134801F052FE4FF400430D
:101F4C00FB6002233B610223BB6107F10C031946C2
:101F5C000D4801F045FE0D4B5B68FB61FB6923F4FA
:101F6C004073FB61FB6943F0E063FB61FB6943F485
:101F7C004073FB61054AFB69536000BF2037BD46C7
:101F8C0080BD00BF000C0140000801400000014072
:101F9C0080B500AF124B134A1A60114B4FF4165216
:101FAC005A600F4B00229A600D4B0022DA600C4BEA
:101FBC0000221A610A4B0C225A61094B00229A61C9
:101FCC00074B0022DA61064804F06EFD0346002B35
:101FDC0003D042210448FFF763FD00BF80BD00BF62
:101FEC00FC010020004800404C74000880B588B00B
:101FFC0000AF78607B681B681F4A934237D11F4A39
:10200C001E4BDB6943F48023D3611C4BDB6903F467
:10201C008023BB60BB684FF48063FB6002233B6191
:10202C000323BB6107F10C031946154801F0D8FDD9
:10203C004FF40063FB6000233B6100237B6107F1DD
:10204C000C0319460E4801F0CBFD0E4B5B68FB618F
:10205C00FB6923F03003FB61FB6943F0E063FB6138
:10206C00FB6943F01003FB61064AFB69536000BF38
:10207C002037BD4680BD00BF004800400010024024
:10208C00001001400000014080B400AF154A154B10
:10209C001B6843F0010313601249124B5A68124B30
:1020AC0013404B600F4A0F4B1B6823F0847323F4CF
:1020BC00803313600B4A0B4B1B6823F48023136093
:1020CC00084A084B5B6823F4FE035360054B4FF43E
:1020DC001F029A60054B4FF000629A6000BFBD462C
:1020EC0080BC7047001002400000FFF800ED00E0DB
:1020FC0080B500AF084A084B1B6843F0100313600F
:10210C00032001F067F9002000F008F8FFF7D8FC75
:10211C000023184680BD00BF0020024080B582B06D
:10212C0000AF7860124B1A68124B1B7819464FF4AB
:10213C007A73B3FBF1F3B2FBF3F3184601F0AEF98B
:10214C000346002B01D001230EE07B680F2B0AD82D
:10215C00002279684FF0FF3001F05CF9064A7B6889
:10216C001360002300E0012318460837BD4680BDEC
:10217C0000000020080000200400002080B400AF04
:10218C00054B1B781A46054B1B681344034A136016
:10219C0000BFBD4680BC7047080000203C020020F8
:1021AC0080B400AF024B1B681846BD4680BC70471C
:1021BC003C02002080B400AF044A044B1B6823F09F
:1021CC000203136000BFBD4680BC704710E000E006
:1021DC0080B586B000AF78600023FB7500233B61AF
:1021EC000023BB600023FB607B68002B01D1012323
:1021FC0053E17B681B689F4A934209D07B681B683C
:10220C009D4A934204D04FF4C1719C48FFF74EFC99
:10221C007B685B68002B09D07B685B68B3F5006F4B
:10222C0004D040F283119548FFF740FC7B689B6813
:10223C00002B09D07B689B68B3F5807F04D04FF4EA
:10224C00C2718E48FFF732FC7B68DB68002B08D02C
:10225C007B68DB68012B04D040F285118748FFF7BF
:10226C0025FC7B68DB69002B22D07B68DB69B3F52E
:10227C00003F1DD07B68DB69B3F5C02F18D07B689D
:10228C00DB69B3F5002F13D07B68DB69B3F5202F26
:10229C000ED07B68DB69B3F5402F09D07B68DB6916
:1022AC00B3F5602F04D04FF4C3717448FFF7FEFBF5
:1022BC007B689B68002B2AD07B681B69002B03D0A2
:1022CC007B681B69102B04D94FF4C5716B48FFF761
:1022DC00EDFB7B685B69002B08D07B685B69012B8D
:1022EC0004D040F28B116548FFF7E0FB7B685B691B
:1022FC00002B0CD07B689B69002B03D07B689B69FF
:10230C00082B04D94FF4C7715C48FFF7CFFB7B68EF
:10231C009B6A002B09D17B680022DA627B68002261
:10232C0083F824207868FDF7CDFF786800F0E2FE92
:10233C000346FB757B689B6A03F01003002B40F08F
:10234C00A380FB7D002B40F09F807B689B6A23F46D
:10235C00885323F0020343F002027B689A627B6885
:10236C005A687B68DB691A437B68DB685B00134344
:10237C00BA681343BB607B689B68B3F5807F03D05E
:10238C007B689B68012B02D14FF4807300E0002323
:10239C003A6913433B617B685B69012B19D17B68FC
:1023AC00DB68002B09D17B689B69013B5A033B69B5
:1023BC00134343F400633B610BE07B689B6A43F07F
:1023CC0020027B689A627B68DB6A43F001027B68BF
:1023DC00DA627B681B687A681268526822F4694179
:1023EC003A690A435A607B681A687B681B6899686B
:1023FC00234B0B40B9680B4393607B689B68B3F528
:10240C00807F03D07B689B68012B04D17B681B69A0
:10241C00013B1B05FB607B681B687A681268D26AFB
:10242C0022F47001FA680A43DA627B681B689A68C6
:10243C00144B1340BA6893420BD17B680022DA62CA
:10244C007B689B6A23F0030343F001027B689A626A
:10245C0022E07B689B6A23F0120343F010027B6836
:10246C009A627B68DB6A43F001027B68DA620123C3
:10247C00FB7511E000240140002801406474000841
:10248C00FDF7E1FFFE0E1FFF7B689B6A43F0100215
:10249C007B689A620123FB75FB7D18461837BD4695
:1024AC0080BD00BF80B584B000AF78600023FB73A3
:1024BC007B681B685C4A934209D07B681B685B4A4B
:1024CC00934204D040F254415948FFF7EFFA7B682D
:1024DC0093F82430012B01D10223A0E07B68012268
:1024EC0083F82420786800F0B3FD0346FB73FB7B74
:1024FC00002B40F08F807B689B6A23F4706323F081
:10250C00010343F480727B689A627B681B68474ABC
:10251C00934205D1444B5B6803F47023002B15D117
:10252C007B689B6A23F480127B689A627B681B68C9
:10253C005B6803F48063002B26D07B689B6A23F4D2
:10254C00405343F480527B689A621DE07B689B6A1F
:10255C0043F480127B689A627B681B68324A934210
:10256C0004D07B681B68314A93420DD12E4B5B68BB
:10257C0003F48063002B07D07B689B6A23F44053E1
:10258C0043F480527B689A627B689B6A03F48053A5
:10259C00002B06D07B68DB6A23F006027B68DA62CC
:1025AC0002E07B680022DA627B68002283F8242038
:1025BC007B681B686FF002021A607B681B687A6884
:1025CC001268526842F020025A607B681B689B6854
:1025DC0003F46023B3F5602F13D17B681B68134A97
:1025EC00934205D1104B5B6803F47023002B08D188
:1025FC007B681B687A681268926842F4A0029A6041
:10260C000CE07B681B687A681268926842F480124E
:10261C009A6003E07B68002283F82420FB7B184639
:10262C001037BD4680BD00BF00240140002801408A
:10263C006474000880B586B000AFF860B9607A6049
:10264C000023FB75FB681B68694A934204D040F277
:10265C00FC416848FFF72AFAFB681B68644A9342FE
:10266C0004D0FB681B68644A934206D1604B5B68DC
:10267C0003F47023002B40F0B380FB6893F82430F4
:10268C00012B01D10223AEE0FB68012283F8242048
:10269C00F86800F0DDFC0346FB75FB7D002B40F079
:1026AC009A80FB689B6A23F4706323F0010343F464
:1026BC008072FB689A62FB681B684F4A934205D193
:1026CC004B4B5B6803F47023002B15D1FB689B6AA2
:1026DC0023F48012FB689A62FB681B685B6803F446
:1026EC008063002B26D0FB689B6A23F4405343F491
:1026FC008052FB689A621DE0FB689B6A43F480126F
:10270C00FB689A62FB681B68394A934204D0FB68E9
:10271C001B68394A93420DD1354B5B6803F48063D7
:10272C00002B07D0FB689B6A23F4405343F4805280
:10273C00FB689A62FB689B6A03F48053002B06D0FB
:10274C00FB68DB6A23F00602FB68DA6202E0FB68D6
:10275C000022DA62FB68002283F82420FB681B6AE3
:10276C00264A9A62FB681B6A254ADA62FB681B6A76
:10277C00244A1A63FB681B686FF002021A60FB683C
:10278C001B68FA681268926842F480729A60FB685F
:10279C00186AFB681B684C331946BA687B6800F0F2
:1027AC00C9FFFB681B689B6803F46023B3F5602FBB
:1027BC0008D1FB681B68FA681268926842F4A002A0
:1027CC009A600FE0FB681B68FA681268926842F422
:1027DC0080129A6006E0FB68002283F8242001E056
:1027EC000123FB75FB7D18461837BD4680BD00BF25
:1027FC000024014064740008002801407531000871
:10280C00F13100080D32000880B584B000AF78605B
:10281C000023FB737B681B68234A934204D040F26D
:10282C0089512248FFF742F97B6893F82430012B39
:10283C0001D1022333E07B68012283F824207868DD
:10284C0000F058FC0346FB73FB7B002B22D17B680A
:10285C001B687A681268926822F480729A607B68AE
:10286C001B6A184600F0D4FF0346FB73FB7B002B5E
:10287C000AD17B689B6A23F4885323F0010343F04D
:10288C0001027B689A6205E07B689B6A43F0400218
:10289C007B689A627B68002283F82420FB7B1846B5
:1028AC001037BD4680BD00BF002401406474000891
:1028BC0080B582B000AF78607B681B68724A934227
:1028CC0009D07B681B68714A934204D040F2D951FD
:1028DC006F48FFF7EBF87B68DB68002B08D07B6850
:1028EC00DB68012B04D040F2DA516948FFF7DEF8BF
:1028FC007B681B69002B03D07B681B69102B04D9E8
:10290C0040F2DB516248FFF7D1F87B681B685B68CB
:10291C0003F02003202B40D17B681B681B6803F05D
:10292C000203022B39D17B689B6A03F01003002B46
:10293C0005D17B689B6A43F400727B689A627B6862
:10294C001B689B6803F46023B3F5602F1DD17B6873
:10295C00DB68002B19D17B681B687A681268526897
:10296C0022F020025A607B689B6A23F480727B6899
:10297C009A627B689B6A03F48053002B05D17B68B9
:10298C009B6A43F001027B689A627868FEF792FFBB
:10299C007B681B686FF012021A607B681B685B68AF
:1029AC0003F08003802B4FD17B681B681B6803F0FE
:1029BC000403042B48D17B689B6A03F01003002BA3
:1029CC0005D17B689B6A43F400527B689A627B68F2
:1029DC001B689B6803F4E043B3F5E04F12D07B68AF
:1029EC001B685B6803F48063002B25D17B681B6834
:1029FC009B6803F46023B3F5602F1DD17B68DB6803
:102A0C00002B19D17B681B687A681268526822F017
:102A1C0080025A607B689B6A23F480527B689A62BE
:102A2C007B689B6A03F48073002B05D17B689B6ADF
:102A3C0043F001027B689A62786800F0FBFB7B68CC
:102A4C001B686FF00C021A607B681B685B6803F0F4
:102A5C004003402B14D17B681B681B6803F00103F7
:102A6C00012B0DD17B689B6A43F480327B689A62A0
:102A7C007868FFF705F87B681B686FF001021A6035
:102A8C0000BF0837BD4680BD00240140002801402E
:102A9C006474000880B483B000AF786000BF0C375A
:102AAC00BD4680BC704780B483B000AF786000BF77
:102ABC000C37BD4680BC704790B585B000AF7860D0
:102ACC0039600023FB730023BB607B681B68884A5A
:102ADC00934209D07B681B68864A934204D040F22B
:102AEC00AA618548FEF7E2FF3B681B68002B48D0C3
:102AFC003B681B68012B44D03B681B68022B40D001
:102B0C003B681B68032B3CD03B681B68042B38D0FC
:102B1C003B681B68052B34D03B681B68062B30D0F8
:102B2C003B681B68072B2CD03B681B68082B28D0F4
:102B3C003B681B68092B24D03B681B680A2B20D0F0
:102B4C003B681B680B2B1CD03B681B680C2B18D0EC
:102B5C003B681B680D2B14D03B681B680E2B10D0E8
:102B6C003B681B680F2B0CD03B681B68102B08D0E4
:102B7C003B681B68112B04D040F2AB615E48FEF73A
:102B8C0095FF3B685B68012B40D03B685B68022B70
:102B9C003CD03B685B68032B38D03B685B68042BEC
:102BAC0034D03B685B68052B30D03B685B68062BE8
:102BBC002CD03B685B68072B28D03B685B68082BE4
:102BCC0024D03B685B68092B20D03B685B680A2BE0
:102BDC001CD03B685B680B2B18D03B685B680C2BDC
:102BEC0014D03B685B680D2B10D03B685B680E2BD8
:102BFC000CD03B685B680F2B08D03B685B68102BD4
:102C0C0004D040F2AC613C48FEF750FF3B689B6837
:102C1C00002B20D03B689B68012B1CD03B689B6829
:102C2C00022B18D03B689B68032B14D03B689B6825
:102C3C00042B10D03B689B68052B0CD03B689B6821
:102C4C00062B08D03B689B68072B04D040F2AD6183
:102C5C002948FEF72BFF7B6893F82430012B01D118
:102C6C000223E2E07B68012283F824203B685B6846
:102C7C00062B1CD87B6819687B681B68586B3B68F3
:102C8C005A6813469B001344053B1F2202FA03F3B8
:102C9C00DB4318403B681C683B685A6813469B0032
:102CAC001344053B04FA03F303434B6342E03B68D4
:102CBC005B680C2B22D87B6819687B681B68186BC7
:102CCC003B685A6813469B001344233B1F2202FAAD
:102CDC0003F3DB4318403B681C683B685A68134697
:102CEC009B001344233B04FA03F303430B6321E0DF
:102CFC000024014000280140647400087B681968B6
:102D0C007B681B68D86A3B685A6813469B0013445F
:102D1C00413B1F2202FA03F3DB4318403B681C685B
:102D2C003B685A6813469B001344413B04FA03F377
:102D3C000343CB623B681B68092B1CD97B68196861
:102D4C007B681B68D8683B681A6813465B001344A1
:102D5C001E3B072202FA03F3DB4318403B689C68D6
:102D6C003B681A6813465B0013441E3B04FA03F3DA
:102D7C000343CB6019E07B6819687B681B68186992
:102D8C003B681A6813465B001344072202FA03F3EC
:102D9C00DB4318403B689C683B681A6813465B0031
:102DAC00134404FA03F303430B613B681B68102BB9
:102DBC0003D03B681B68112B32D17B681B681D4A02
:102DCC00934225D17B681B689B6803F40003002B9E
:102DDC0026D17B681B687A681268926842F40002FC
:102DEC009A603B681B68102B1AD1134B1B68134A53
:102DFC00A2FB03239A0C13469B0013445B00BB609D
:102E0C0002E0BB68013BBB60BB68002BF9D107E05B
:102E1C007B689B6A43F020027B689A620123FB73F8
:102E2C007B68002283F82420FB7B18461437BD46B0
:102E3C0090BD00BF002401400000002083DE1B4336
:102E4C0080B582B000AF786039607B681B68794AC6
:102E5C00934209D07B681B68774A934204D040F2B6
:102E6C0015717648FEF722FE3B681B68002B22D0BA
:102E7C003B681B68724A93421DD03B681B68714AC1
:102E8C00934218D03B681B686F4A934213D03B683F
:102E9C001B68B3F5000F0ED03B681B68B3F5800FB1
:102EAC0009D03B681B68B3F5400F04D040F2167193
:102EBC006248FEF7FBFD3B689B68002B08D03B6823
:102ECC009B68012B04D040F217715C48FEF7EEFDB5
:102EDC003B68DB68B3F5805F04D34FF4E36157487C
:102EEC00FEF7E4FD3B681B69B3F5805F04D340F249
:102EFC0019715248FEF7DAFD3B681B68504A934241
:102F0C0009D03B681B684F4A934204D03B681B684E
:102F1C004D4A93424CD13B685B68002B48D03B68D0
:102F2C005B68012B44D03B685B68022B40D03B684C
:102F3C005B68032B3CD03B685B68042B38D03B6848
:102F4C005B68052B34D03B685B68062B30D03B6844
:102F5C005B68072B2CD03B685B68082B28D03B6840
:102F6C005B68092B24D03B685B680A2B20D03B683C
:102F7C005B680B2B1CD03B685B680C2B18D03B6838
:102F8C005B680D2B14D03B685B680E2B10D03B6834
:102F9C005B680F2B0CD03B685B68102B08D03B6830
:102FAC005B68112B04D040F21F712448FEF77EFDA4
:102FBC007B6893F82430012B01D1022335E07B6828
:102FCC00012283F824203B689B68012B08D17B6885
:102FDC001B687A681268526842F040025A6007E037
:102FEC007B681B687A681268526822F040025A604B
:102FFC007B681A687B681B685968144B0B403968EE
:10300C0008683968496801430B4353607B681B6847
:10301C003A68D2685A627B681B683A6812699A628D
:10302C007B68002283F82420002318460837BD460D
:10303C0080BD00BF002401400028014064740008DA
:10304C0000028000000240000002C000E0FD3FFFD3
:10305C0080B584B000AF78600023FB600023BB60B8
:10306C007B681B689B6803F00103012B39D07B68DC
:10307C001B687A681268926842F001029A601B4BD6
:10308C001B681B4AA2FB03239B0CBB6002E0BB68C2
:10309C00013BBB60BB68002BF9D1FFF781F8F860EE
:1030AC0018E0FFF77DF80246FB68D31A022B11D902
:1030BC007B689B6A43F010027B689A627B68DB6AD0
:1030CC0043F001027B68DA627B68002283F82420DB
:1030DC00012307E07B681B689B6803F00103012B4D
:1030EC00DFD1002318461037BD4680BD00000020FC
:1030FC0083DE1B4380B584B000AF78600023FB6097
:10310C007B681B689B6803F00103012B27D17B684C
:10311C001B687A681268926822F001029A60FFF7C5
:10312C003FF8F86014E0FFF73BF80246FB68D31A4F
:10313C00022B0DD97B689B6A43F010027B689A6264
:10314C007B68DB6A43F001027B68DA62012307E0EB
:10315C007B681B689B6803F00103012BE3D0002301
:10316C0018461037BD4680BD80B584B000AF78607E
:10317C007B685B6AFB60FB689B6A03F05003002B67
:10318C0027D1FB689B6A43F40072FB689A62FB6868
:10319C001B689B6803F46023B3F5602F15D1FB68A3
:1031AC00DB68002B11D1FB689B6A23F48072FB68EF
:1031BC009A62FB689B6A03F48053002B05D1FB6871
:1031CC009B6A43F00102FB689A62F868FEF772FB97
:1031DC0004E0FB681B6A1B6B7868984700BF1037CC
:1031EC00BD4680BD80B584B000AF78607B685B6AFB
:1031FC00FB60F868FFF74EFC00BF1037BD4680BD82
:10320C0080B584B000AF78607B685B6AFB60FB685C
:10321C009B6A43F04002FB689A62FB68DB6A43F0EE
:10322C000402FB68DA62F868FFF73DFC00BF103758
:10323C00BD4680BD80B483B000AF786000BF0C3752
:10324C00BD4680BC7047000080B485B000AF78608C
:10325C007B6803F00703FB600C4BDB68BB60BA6850
:10326C004FF6FF031340BB60FB681A02BB681343A5
:10327C0043F0BF6343F40033BB60044ABB68D360C4
:10328C0000BF1437BD4680BC704700BF00ED00E0A6
:10329C0080B400AF044BDB681B0A03F0070318462D
:1032AC00BD4680BC704700BF00ED00E080B483B029
:1032BC0000AF0346FB71084997F907305B09FA79AF
:1032CC0002F01F02012000FA02F241F8232000BF95
:1032DC000C37BD4680BC704700E100E080B483B081
:1032EC0000AF03463960FB7197F90730002B0BDAFE
:1032FC000D49FB7903F00F03043B3A68D2B212017B
:10330C00D2B20B441A7609E0084997F907303A68AB
:10331C00D2B21201D2B20B4483F8002300BF0C3797
:10332C00BD4680BC704700BF00ED00E000E100E04E
:10333C0080B489B000AFF860B9607A60FB6803F0C4
:10334C000703FB61FB69C3F10703042B28BF0423AC
:10335C00BB61FB690433062B02D9FB69033B00E01C
:10336C0000237B610122BB6902FA03F35A1EBB687E
:10337C001A407B699A4001217B6901FA03F3591EBB
:10338C007B680B40134318462437BD4680BC7047FE
:10339C0080B582B000AF78607B68013BB3F1807F71
:1033AC0001D301230FE00A4A7B68013B53600F21D4
:1033BC004FF0FF30FFF792FF054B00229A60044B51
:1033CC0007221A60002318460837BD4680BD00BF8F
:1033DC0010E000E080B582B000AF78607B68072B0E
:1033EC000FD07B68062B0CD07B68052B09D07B6833
:1033FC00042B06D07B68032B03D0A2210448FEF7D4
:10340C0055FB7868FFF720FF00BF0837BD4680BD2D
:10341C00A474000880B586B000AF0346B9607A602A
:10342C00FB7300237B617B680F2B03D9BA210E48F9
:10343C00FEF73CFBBB680F2B03D9BB210A48FEF7F8
:10344C0035FBFFF725FF78617A68B9687869FFF773
:10345C006FFF024697F90F3011461846FFF73EFFF3
:10346C0000BF1837BD4680BDA474000880B582B07B
:10347C0000AF0346FB7197F90730002B03DACE211E
:10348C000548FEF713FB97F907301846FFF70EFFB8
:10349C0000BF0837BD4680BDA474000880B582B05B
:1034AC0000AF78607868FFF773FF0346184608375B
:1034BC00BD4680BD80B582B000AF78607B68042BC0
:1034CC0007D07B68002B04D040F2D9110B48FEF7D3
:1034DC00EDFA7B68042B06D1094A094B1B6843F0B3
:1034EC000403136005E0064A054B1B6823F0040334
:1034FC00136000BF0837BD4680BD00BFA474000830
:10350C0010E000E080B500AF00F002F800BF80BD15
:10351C0080B400AF00BFBD4680BC704780B584B09E
:10352C0000AF78600023FB607B68002B01D1012386
:10353C00E6E07B681B68744A934221D07B681B6869
:10354C00724A93421CD07B681B68714A934217D015
:10355C007B681B686F4A934212D07B681B686E4A6B
:10356C0093420DD07B681B686C4A934208D07B68F1
:10357C001B686B4A934203D0AA216A48FEF796FA5D
:10358C007B685B68002B0CD07B685B68102B08D0C9
:10359C007B685B68B3F5804F03D0AB216148FEF7C5
:1035AC0085FA7B689B68402B07D07B689B68002B57
:1035BC0003D0AC215B48FEF779FA7B68DB68802B83
:1035CC0007D07B68DB68002B03D0AD215548FEF794
:1035DC006DFA7B681B69002B0DD07B681B69B3F5FA
:1035EC00807F08D07B681B69B3F5007F03D0AE21C8
:1035FC004C48FEF75BFA7B685B69002B0DD07B684F
:10360C005B69B3F5806F08D07B685B69B3F5006FBD
:10361C0003D0AF214348FEF749FA7B689B69002B26
:10362C0007D07B689B69202B03D0B0213D48FEF767
:10363C003DFA7B68DB69002B12D07B68DB69B3F544
:10364C00805F0DD07B68DB69B3F5005F08D07B68C9
:10365C00DB69B3F5405F03D0B1213248FEF726FA9F
:10366C007B681B681A46304B1344304AA2FB032379
:10367C001B099A007B681A647B682D4ADA637B68A5
:10368C00022283F821207B681B681B68FB60FB68A7
:10369C0023F47F5323F03003FB607B685A687B680C
:1036AC009B681A437B68DB681A437B681B691A4367
:1036BC007B685B691A437B689B691A437B68DB698F
:1036CC001343FA681343FB607B681B68FA681A6043
:1036DC007B6800229A627B680022DA627B68002297
:1036EC001A637B6800225A637B6800229A637B68AA
:1036FC00012283F821207B68002283F820200023FC
:10370C0018461037BD4680BD080002401C00024020
:10371C003000024044000240580002406C0002405D
:10372C0080000240E8740008F8FFFDBFCDCCCCCC83
:10373C000000024080B586B000AFF860B9607A60D6
:10374C003B600023FB753B68002B03D03B68B3F553
:10375C00803F04D34FF4C0712C48FEF7A7F9FB68E7
:10376C0093F82030012B01D102234AE0FB6801229F
:10377C0083F82020FB6893F82130012B3AD1FB68A9
:10378C00022283F82120FB6800229A63FB681B68E5
:10379C00FA681268126822F001021A603B687A68B3
:1037AC00B968F86800F0EEF9FB68DB6A002B08D00A
:1037BC00FB681B68FA681268126842F00E021A6005
:1037CC000FE0FB681B68FA681268126822F00402AA
:1037DC001A60FB681B68FA681268126842F00A02E9
:1037EC001A60FB681B68FA681268126842F00102E2
:1037FC001A6005E0FB68002283F820200223FB7589
:10380C00FB7D18461837BD4680BD00BFE874000824
:10381C0080B485B000AF78600023FB737B681B68B5
:10382C007A681268126822F00E021A607B681B68B4
:10383C007A681268126822F001021A607B68DB6BEE
:10384C007A68126C012101FA02F25A607B6801223B
:10385C0083F821207B68002283F82020FB7B18460C
:10386C001437BD4680BC704780B584B000AF78601B
:10387C000023FB737B6893F82130022B05D07B6807
:10388C0004229A630123FB7357E07B681B687A68F8
:10389C001268126822F00E021A607B681B687A6844
:1038AC001268126822F001021A60264A7B681B68B3
:1038BC001946254B99422ED07B681B681946234B21
:1038CC00994226D07B681B681946214B99421DD022
:1038DC007B681B6819461F4B994214D07B681B6888
:1038EC0019461D4B99420BD07B681B6819461B4B24
:1038FC00994202D14FF480130EE04FF080730BE02D
:10390C004FF4803308E04FF4805305E04FF480739C
:10391C0002E0102300E0012353607B68012283F84E
:10392C0021207B68002283F820207B685B6B002BB6
:10393C0003D07B685B6B78689847FB7B1846103725
:10394C00BD4680BD00000240080002401C00024041
:10395C003000024044000240580002406C0002401B
:10396C0080B584B000AF78607B68DB6B1B68FB6054
:10397C007B681B681B68BB607B681B6C04229A40CD
:10398C00FB681340002B55D0BB6803F00403002BDD
:10399C0050D07B681B681B6803F02003002B07D1F9
:1039AC007B681B687A681268126822F004021A603D
:1039BC006D4A7B681B6819466C4B99422ED07B680C
:1039CC001B6819466A4B994226D07B681B681946BE
:1039DC00684B99421DD07B681B681946664B99420F
:1039EC0014D07B681B681946644B99420BD07B68DA
:1039FC001B681946624B994202D14FF480030EE0CA
:103A0C004FF080630BE04FF4802308E04FF48043C9
:103A1C0005E04FF4806302E0402300E00423536090
:103A2C007B68DB6A002B00F09A807B68DB6A786825
:103A3C00984794E07B681B6C02229A40FB68134009
:103A4C00002B5CD0BB6803F00203002B57D07B68C3
:103A5C001B681B6803F02003002B0BD17B681B68D1
:103A6C007A681268126822F00A021A607B680122D6
:103A7C0083F821203C4A7B681B6819463B4B9942D2
:103A8C002ED07B681B681946394B994226D07B682F
:103A9C001B681946374B99421DD07B681B68194629
:103AAC00354B994214D07B681B681946334B9942AD
:103ABC000BD07B681B681946314B994202D14FF4ED
:103ACC0000130EE04FF000730BE04FF4003308E0EE
:103ADC004FF4005305E04FF4007302E0202300E0A4
:103AEC00022353607B68002283F820207B689B6A4A
:103AFC00002B34D07B689B6A786898472FE07B68F2
:103B0C001B6C08229A40FB681340002B28D0BB6822
:103B1C0003F00803002B23D07B681B687A681268BB
:103B2C00126822F00E021A607B68DB6B7A68126CEA
:103B3C00012101FA02F25A607B6801229A637B68C8
:103B4C00012283F821207B68002283F820207B68E7
:103B5C001B6B002B04D07B681B6B7868984700BFED
:103B6C0000BF1037BD4680BD000002400800024077
:103B7C001C00024030000240440002405800024049
:103B8C006C00024080B485B000AFF860B9607A6018
:103B9C003B60FB68DB6BFA68126C012101FA02F2E4
:103BAC005A60FB681B683A685A60FB685B68102BAC
:103BBC0008D1FB681B687A689A60FB681B68BA6856
:103BCC00DA6007E0FB681B68BA689A60FB681B68E0
:103BDC007A68DA6000BF1437BD4680BC70470000BD
:103BEC0080B58AB000AF786039600023FB61002398
:103BFC00BB6100237B6100233B6200233B617B683C
:103C0C00984A934213D07B68974A93420FD07B68B3
:103C1C00964A93420BD07B68954A934207D07B68B7
:103C2C00944A934203D0CD219348FDF73FFF3B6864
:103C3C001B689BB2002B05D03B681B681B0C1B043C
:103C4C00002B03D0CE218C48FDF730FF3B685B681E
:103C5C00002B35D03B685B68012B31D03B685B682F
:103C6C00112B2DD03B685B68022B29D03B685B681D
:103C7C00122B25D03B685B68804A934220D03B686E
:103C8C005B687F4A93421BD03B685B687D4A9342DA
:103C9C0016D03B685B687C4A934211D03B685B68EA
:103CAC007A4A93420CD03B685B68794A934207D0BE
:103CBC003B685B68032B03D0CF216F48FDF7F6FE02
:103CCC0000237B62AAE101227B6A02FA03F3FB6107
:103CDC003B681A68FB691340BB61BA69FB699A427D
:103CEC0040F099817B685F4A934213D07B685E4AAF
:103CFC0093420FD07B685D4A93420BD07B685C4A41
:103D0C00934207D07B685B4A934203D0DD215A482B
:103D1C00FDF7CCFE3B685B68122B65D0122B0ED8DE
:103D2C00022B4CD0022B04D8002B72D0012B1DD0AF
:103D3C00B3E0032B00F0AE80112B2BD0ADE0504A3A
:103D4C00934266D04E4A934206D84C4A934260D076
:103D5C004D4A93425DD0A0E04A4A934259D04C4A16
:103D6C00934256D0494A934253D096E03B68DB6865
:103D7C00022B0BD03B68DB68012B07D03B68DB6860
:103D8C00032B03D0E5213C48FDF790FE3B68DB6834
:103D9C003B6282E03B68DB68022B0BD03B68DB6844
:103DAC00012B07D03B68DB68032B03D0EC21324896
:103DBC00FDF77CFE3B68DB6804333B626DE03B68DF
:103DCC00DB68022B0BD03B68DB68012B07D03B6810
:103DDC00DB68032B03D0F3212748FDF767FE3B6814
:103DEC00DB6808333B6258E03B68DB68022B0BD086
:103DFC003B68DB68012B07D03B68DB68032B03D0E7
:103E0C00FA211D48FDF752FE3B68DB680C333B6220
:103E1C0043E03B689B68002B0CD03B689B68012BF4
:103E2C0008D03B689B68022B04D040F20711124863
:103E3C00FDF73CFE3B689B68002B02D104233B62E0
:103E4C002BE03B689B68012B05D108233B627B6808
:103E5C00FA691A6121E008233B627B68FA695A61AE
:103E6C001BE000BF00080140000C014000100140A5
:103E7C0000140140001801402875000800001110C2
:103E8C000000211000003110000012100000221060
:103E9C000000321000233B6200BFBB69FF2B01D82E
:103EAC007B6801E07B680433FB60BB69FF2B02D8A5
:103EBC007B6A9B0002E07B6A083B9B003B61FB68D2
:103ECC001A680F213B6901FA03F3DB431A40396A84
:103EDC003B6901FA03F31A43FB681A603B685B68A1
:103EEC0003F08053002B00F09680504A4F4B9B6997
:103EFC0043F0010393614D4B9B6903F00103BB60DD
:103F0C00BB684B4A7B6A9B08023352F823307B61B7
:103F1C007B6A03F003039B000F2202FA03F3DB43DB
:103F2C007A6913407B617B68424A934213D07B6869
:103F3C00414A93420DD07B68404A934207D07B683C
:103F4C003F4A934201D1032306E0042304E00223F9
:103F5C0002E0012300E000237A6A02F003029200DF
:103F6C0093407A6913437B6131497B6A9B08023326
:103F7C007A6941F823203B685B6803F48033002B9B
:103F8C0006D030492F4B1A68BB6913430B6006E00F
:103F9C002C492C4B1A68BB69DB4313400B603B6804
:103FAC005B6803F40033002B06D02649254B5A6876
:103FBC00BB6913434B6006E02249224B5A68BB692C
:103FCC00DB4313404B603B685B6803F48013002BAE
:103FDC0006D01C491B4B9A68BB6913438B6006E0E7
:103FEC001849184B9A68BB69DB4313408B603B68DC
:103FFC005B6803F40013002B06D01249114BDA68EE
:10400C00BB691343CB6006E00E490E4BDA68BB6903
:10401C00DB431340CB607B6A01337B627B6A0F2BE3
:10402C007FF651AE00BF2837BD4680BD0010024060
:10403C000000014000080140000C0140001001404C
:10404C00001401400004014080B582B000AF7860DC
:10405C000B467B8013467B707B88002B04D07B88BF
:10406C001B0C1B04002B04D040F2E3110E48FDF78F
:10407C001DFD7B78002B07D07B78012B04D04FF4EF
:10408C00F2710948FDF712FD7B78002B03D07A887A
:10409C007B681A6103E07B881A047B681A6100BF95
:1040AC000837BD4680BD00BF2875000880B582B0BA
:1040BC0000AF0346FB80084B5A69FB881340002B6A
:1040CC0006D0054AFB885361FB881846FDF7B4FC03
:1040DC0000BF0837BD4680BD0004014080B582B0EA
:1040EC0000AF78600B46FB70FB78012B07D0FB7898
:1040FC00022B04D04FF4DC710A48FDF7D7FC0A4AB6
:10410C00094B1B6923F004031361FB78012B01D1CC
:10411C0030BF02E040BF20BF20BF00BF0837BD4604
:10412C0080BD00BF6875000800ED00E080B586B06A
:10413C0000AF786000233B617B68002B04D14FF407
:10414C00B8719F48FDF7B2FC7B681B68002B1CD034
:10415C007B681B6803F00103002B16D17B681B687E
:10416C0003F00203002B10D17B681B6803F00803DB
:10417C00002B0AD17B681B6803F00403002B04D1CD
:10418C0040F271118E48FDF791FC7B681B6803F0BF
:10419C000103002B00F09A807B685B68002B0ED02B
:1041AC007B685B68B3F5803F09D07B685B68B3F5CF
:1041BC00A02F04D040F277118148FDF777FC814B9A
:1041CC005B6803F00C03042B0CD07E4B5B6803F094
:1041DC000C03082B12D17B4B5B6803F48033B3F5D3
:1041EC00803F0BD1774B1B6803F40033002B6CD052
:1041FC007B685B68002B68D10123E8E27B685B6815
:10420C00B3F5803F06D16F4A6E4B1B6843F4803385
:10421C0013602EE07B685B68002B0CD1694A694BFC
:10422C001B6823F480331360664A664B1B6823F4C7
:10423C00802313601DE07B685B68B3F5A02F0CD165
:10424C00604A604B1B6843F4802313605D4A5D4BEE
:10425C001B6843F4803313600BE05A4A594B1B68BC
:10426C0023F480331360574A564B1B6823F4802386
:10427C0013607B685B68002B13D0FDF791FF3861EE
:10428C0008E0FDF78DFF02463B69D31A642B01D978
:10429C0003239CE24B4B1B6803F40033002BF0D040
:1042AC0014E0FDF77DFF386108E0FDF779FF024669
:1042BC003B69D31A642B01D9032388E2414B1B6859
:1042CC0003F40033002BF0D100E000BF7B681B68C7
:1042DC0003F00203002B7FD07B681B69002B08D0F6
:1042EC007B681B69012B04D040F2AB113448FDF7FD
:1042FC00DDFB7B685B691F2B04D94FF4D67130480A
:10430C00FDF7D4FB2F4B5B6803F00C03002B0BD099
:10431C002C4B5B6803F00C03082B1CD1294B5B68FE
:10432C0003F48033002B16D1264B1B6803F00203D9
:10433C00002B05D07B681B69012B01D0012346E2C1
:10434C002049204B1B6823F0F8027B685B69DB007B
:10435C0013430B6040E07B681B69002B20D01A4B89
:10436C0001221A60FDF71CFF386108E0FDF718FF09
:10437C0002463B69D31A022B01D9032327E2114BC6
:10438C001B6803F00203002BF0D00E490D4B1B6889
:10439C0023F0F8027B685B69DB0013430B601BE0C6
:1043AC00094B00221A60FDF7FBFE38610EE0FDF7A9
:1043BC00F7FE02463B69D31A022B07D9032306E208
:1043CC00A875000800100240000042427D4B1B689B
:1043DC0003F00203002BEAD17B681B6803F008038F
:1043EC00002B40D07B689B69002B08D07B689B69B5
:1043FC00012B04D04FF4F6717348FDF757FB7B6823
:10440C009B69002B19D0714B01221A60FDF7C8FE75
:10441C00386108E0FDF7C4FE02463B69D31A022B53
:10442C0001D90323D3E1674B5B6A03F00203002B32
:10443C00F0D0012000F00CFC15E0644B00221A6057
:10444C00FDF7AEFE386108E0FDF7AAFE02463B69B7
:10445C00D31A022B01D90323B9E15A4B5B6A03F03F
:10446C000203002BF0D17B681B6803F00403002BC4
:10447C0000F0BF800023FB757B68DB68002B0CD041
:10448C007B68DB68012B08D07B68DB68052B04D0CC
:10449C0040F21B214C48FDF709FB4A4BDB6903F04A
:1044AC008053002B0DD1474A464BDB6943F08053B8
:1044BC00D361444BDB6903F08053FB60FB68012341
:1044CC00FB75434B1B6803F48073002B18D1404AD7
:1044DC003F4B1B6843F480731360FDF761FE38613A
:1044EC0008E0FDF75DFE02463B69D31A642B01D947
:1044FC0003236CE1364B1B6803F48073002BF0D064
:10450C007B68DB68012B06D12E4A2E4B1B6A43F0CD
:10451C00010313622DE07B68DB68002B0CD1294A68
:10452C00284B1B6A23F001031362264A254B1B6A96
:10453C0023F0040313621CE07B68DB68052B0CD1B1
:10454C00204A204B1B6A43F0040313621D4A1D4B87
:10455C001B6A43F0010313620BE01A4A194B1B6AE6
:10456C0023F001031362174A164B1B6A23F0040352
:10457C0013627B68DB68002B15D0FDF711FE3861E8
:10458C000AE0FDF70DFE02463B69D31A41F2883270
:10459C00934201D903231AE10A4B1B6A03F002036D
:1045AC00002BEED01CE0FDF7FBFD386112E0FDF7AF
:1045BC00F7FD02463B69D31A41F28832934209D97E
:1045CC00032304E100100240A87500088004424255
:1045DC0000700040804B1B6A03F00203002BE6D1F5
:1045EC00FB7D012B05D17C4A7B4BDB6923F080538F
:1045FC00D3617B68DB69002B0CD07B68DB69012BFA
:10460C0008D07B68DB69022B04D040F2B9217348D7
:10461C00FDF74CFA7B68DB69002B00F0D7806E4B02
:10462C005B6803F00C03082B00F0CE807B68DB6921
:10463C00022B40F0B2807B681B6A002B09D07B6890
:10464C001B6AB3F5803F04D040F2C2216348FDF7EA
:10465C002DFA7B685B6A002B4AD07B685B6AB3F5EA
:10466C00802F45D07B685B6AB3F5002F40D07B6808
:10467C005B6AB3F5402F3BD07B685B6AB3F5801F58
:10468C0036D07B685B6AB3F5A01F31D07B685B6A60
:10469C00B3F5C01F2CD07B685B6AB3F5E01F27D045
:1046AC007B685B6AB3F5001F22D07B685B6AB3F54D
:1046BC00101F1DD07B685B6AB3F5201F18D07B6878
:1046CC005B6AB3F5301F13D07B685B6AB3F5401F90
:1046DC000ED07B685B6AB3F5501F09D07B685B6AB0
:1046EC00B3F5601F04D040F2C3213C48FDF7DEF95E
:1046FC003B4B00221A60FDF753FD386108E0FDF7D3
:10470C004FFD02463B69D31A022B01D903235EE00D
:10471C00314B1B6803F00073002BF0D17B681B6AD4
:10472C00B3F5803F16D17B689B68002B09D07B6862
:10473C009B68B3F5003F04D040F2D9212748FDF720
:10474C00B5F92549244B5B6823F400327B689B68E0
:10475C0013434B602048204B5B6823F474127B6836
:10476C00196A7B685B6A0B43134343601C4B012241
:10477C001A60FDF715FD386108E0FDF711FD0246E2
:10478C003B69D31A022B01D9032320E0124B1B687F
:10479C0003F00073002BF0D018E0114B00221A60CC
:1047AC00FDF7FEFC386108E0FDF7FAFC02463B69B8
:1047BC00D31A022B01D9032309E0074B1B6803F022
:1047CC000073002BF0D101E0012300E00023184618
:1047DC001837BD4680BD00BF00100240A875000808
:1047EC006000424280B584B000AF7860396000232D
:1047FC00FB607B68002B04D140F22E318B48FDF717
:10480C0055F97B681B6803F00103002B16D17B68FC
:10481C001B6803F00203002B10D17B681B6803F0AC
:10482C000403002B0AD17B681B6803F00803002BE0
:10483C0004D140F22F317D48FDF738F93B68002B4D
:10484C000AD03B68012B07D03B68022B04D04FF4F5
:10485C004C717648FDF72AF9754B1B6803F007027B
:10486C003B689A4210D27249714B1B6823F00702C5
:10487C003B6813430B606E4B1B6803F007023B68ED
:10488C009A4201D0012342E17B681B6803F00203CA
:10489C00002B31D07B689B68002B24D07B689B68F5
:1048AC00802B20D07B689B68902B1CD07B689B68EE
:1048BC00A02B18D07B689B68B02B14D07B689B68AE
:1048CC00C02B10D07B689B68D02B0CD07B689B686E
:1048DC00E02B08D07B689B68F02B04D040F2493168
:1048EC005248FDF7E3F85349524B5B6823F0F00252
:1048FC007B689B6813434B607B681B6803F0010368
:10490C00002B7BD07B685B68002B0CD07B685B68D2
:10491C00012B08D07B685B68022B04D04FF45471D8
:10492C004248FDF7C3F87B685B68012B07D1414B0C
:10493C001B6803F40033002B15D10123E7E07B68DF
:10494C005B68022B07D13B4B1B6803F00073002BF9
:10495C0009D10123DBE0374B1B6803F00203002B6A
:10496C0001D10123D3E03349324B5B6823F00302BE
:10497C007B685B6813434B60FDF712FCF8607B6847
:10498C005B68012B12D10AE0FDF70AFC0246FB68BA
:10499C00D31A41F28832934201D90323B7E0254B55
:1049AC005B6803F00C03042BEED127E07B685B689B
:1049BC00022B1DD10AE0FDF7F3FB0246FB68D31A6C
:1049CC0041F28832934201D90323A0E0194B5B6872
:1049DC0003F00C03082BEED110E0FDF7E1FB0246CF
:1049EC00FB68D31A41F28832934201D903238EE03B
:1049FC00104B5B6803F00C03002BEED10C4B1B68C7
:104A0C0003F007023B689A4216D90949084B1B6808
:104A1C0023F007023B6813430B60054B1B6803F044
:104A2C0007023B689A4207D0012370E0A875000882
:104A3C0000200240001002407B681B6803F0040356
:104A4C00002B25D07B68DB68002B18D07B68DB68DB
:104A5C00B3F5806F13D07B68DB68B3F5A06F0ED015
:104A6C007B68DB68B3F5C06F09D07B68DB68B3F596
:104A7C00E06F04D04FF469712748FDF717F8274908
:104A8C00264B5B6823F4E0627B68DB6813434B6066
:104A9C007B681B6803F00803002B26D07B681B691E
:104AAC00002B18D07B681B69B3F5806F13D07B6823
:104ABC001B69B3F5A06F0ED07B681B69B3F5C06F93
:104ACC0009D07B681B69B3F5E06F04D040F2AB31C1
:104ADC001148FCF7EBFF1149104B5B6823F4605253
:104AEC007B681B69DB0013434B6000F01DF801462B
:104AFC000A4B5B681B0903F00F03094AD35C21FACC
:104B0C0003F3084A13600020FDF708FB0023184646
:104B1C001037BD4680BD00BFA875000800100240CC
:104B2C00187700080000002090B48AB000AF2A4B20
:104B3C003C1D0FCB84E80F00284B1B883B800023C7
:104B4C00FB610023BB6100237B6200237B6100239C
:104B5C003B62234B5B68FB61FB6903F00C03042B8A
:104B6C0002D0082B03D02DE01E4B3B622DE0FB69DD
:104B7C009B0C03F00F0307F12802134413F8243C99
:104B8C007B61FB6903F48033002B13D0144B5B68FF
:104B9C005B0C03F0010307F12802134413F8283CC3
:104BAC00BB617B690F4A02FB03F2BB69B2FBF3F3F7
:104BBC007B6204E07B690C4A02FB03F37B627B6A39
:104BCC003B6202E0074B3B6200BF3B6A184628374A
:104BDC00BD4690BC704700BFE8750008F87500082A
:104BEC000010024000127A0000093D0080B400AFB2
:104BFC00024B1B681846BD4680BC70470000002065
:104C0C0080B500AFFFF7F2FF0146054B5B681B0A4E
:104C1C0003F00703034AD35C21FA03F3184680BD63
:104C2C00001002402877000880B500AFFFF7DEFFC8
:104C3C000146054B5B68DB0A03F00703034AD35CB0
:104C4C0021FA03F3184680BD0010024028770008B3
:104C5C0080B485B000AF78600A4B1B680A4AA2FB8F
:104C6C0003235B0A7A6802FB03F3FB6000BFFB685B
:104C7C005A1EFA60002BF9D100BF1437BD4680BC18
:104C8C00704700BF00000020D34D621080B586B085
:104C9C0000AF786000233B610023FB607B681B68DE
:104CAC0003F00103002B0FD17B681B6803F0020398
:104CBC00002B09D17B681B6803F01003002B03D178
:104CCC007C217348FCF7F2FE7B681B6803F0010340
:104CDC00002B00F095807B685B68002B12D07B6802
:104CEC005B68B3F5807F0DD07B685B68B3F5007FA4
:104CFC0008D07B685B68B3F5407F03D082216448A1
:104D0C00FCF7D4FE0023FB75624BDB6903F0805388
:104D1C00002B0DD15F4A5F4BDB6943F08053D361AD
:104D2C005C4BDB6903F08053BB60BB680123FB75F4
:104D3C00594B1B6803F48073002B18D1564A564B01
:104D4C001B6843F480731360FDF72AFA386108E09E
:104D5C00FDF726FA02463B69D31A642B01D90323CB
:104D6C0092E04D4B1B6803F48073002BF0D0494B41
:104D7C001B6A03F44073FB60FB68002B2ED07B682E
:104D8C005B6803F44072FB689A4227D0414B1B6A64
:104D9C0023F44073FB60414B01221A603F4B00220D
:104DAC001A603C4AFB681362FB6803F00103002B9A
:104DBC0014D0FDF7F5F938610AE0FDF7F1F9024678
:104DCC003B69D31A41F28832934201D903235BE049
:104DDC00304B1B6A03F00203002BEED02D492D4BF8
:104DEC001B6A23F440727B685B6813430B62FB7D88
:104DFC00012B05D1274A274BDB6923F08053D36164
:104E0C007B681B6803F00203002B1FD07B689B6838
:104E1C00002B12D07B689B68B3F5804F0DD07B685C
:104E2C009B68B3F5004F08D07B689B68B3F5404F87
:104E3C0003D0C9211648FCF739FE1649154B5B689F
:104E4C0023F440427B689B6813434B607B681B6870
:104E5C0003F01003002B16D07B68DB68B3F5800FD2
:104E6C0008D07B68DB68002B04D040F22511084881
:104E7C00FCF71CFE0749074B5B6823F480027B6838
:104E8C00DB6813434B60002318461837BD4680BDC2
:104E9C00FC750008001002400070004040044242C3
:104EAC0080B582B000AF78607B68002B01D1012304
:104EBC006BE07B681B68374A934212D07B681B6897
:104ECC00B3F1804F0DD07B681B68334A934208D0F6
:104EDC007B681B68314A934203D0D5213048FCF7DC
:104EEC00E5FD7B689B68002B13D07B689B68102BBF
:104EFC000FD07B689B68202B0BD07B689B68402B6A
:104F0C0007D07B689B68602B03D0D6212448FCF724
:104F1C00CDFD7B681B69002B0DD07B681B69B3F53D
:104F2C00807F08D07B681B69B3F5007F03D0D72145
:104F3C001B48FCF7BBFD7B689B69002B07D07B688B
:104F4C009B69802B03D0D8211548FCF7AFFD7B68FB
:104F5C0093F83D30DBB2002B06D17B68002283F83E
:104F6C003C207868FCF750FF7B68022283F83D20D8
:104F7C007B681A687B6804331946104601F060F9A7
:104F8C007B68012283F83D20002318460837BD4674
:104F9C0080BD00BF002C0140000400400008004010
:104FAC005476000880B582B000AF78607B681B68CF
:104FBC00154A934213D07B681B68B3F1804F0ED017
:104FCC007B681B68114A934209D07B681B68104AA6
:104FDC00934204D040F25D110E48FCF767FD7B68EC
:104FEC001B687A681268D26842F00102DA607B684A
:104FFC001B687A681268126842F001021A6000237A
:10500C0018460837BD4680BD002C01400004004006
:10501C00000800405476000880B582B000AF78607C
:10502C007B68002B01D101236FE07B681B68394A38
:10503C00934213D07B681B68B3F1804F0ED07B6812
:10504C001B68354A934209D07B681B68334A9342EC
:10505C0004D040F2E2313248FCF728FD7B689B68B3
:10506C00002B14D07B689B68102B10D07B689B683E
:10507C00202B0CD07B689B68402B08D07B689B68EE
:10508C00602B04D040F2E3312548FCF70FFD7B6820
:10509C001B69002B0ED07B681B69B3F5807F09D090
:1050AC007B681B69B3F5007F04D04FF479711C4801
:1050BC00FCF7FCFC7B689B69002B08D07B689B6928
:1050CC00802B04D040F2E5311548FCF7EFFC7B68EF
:1050DC0093F83D30DBB2002B06D17B68002283F8BD
:1050EC003C20786800F01EF87B68022283F83D2093
:1050FC007B681A687B6804331946104601F0A0F8E7
:10510C007B68012283F83D20002318460837BD46F2
:10511C0080BD00BF002C014000040040000800408E
:10512C005476000880B483B000AF786000BF0C37B1
:10513C00BD4680BC7047000080B582B000AF78607F
:10514C0039607B681B68344A93420BD13B68002B57
:10515C0040D03B68042B3DD03B68082B3AD03B68D1
:10516C000C2B37D07B681B68B3F1804F0BD13B689D
:10517C00002B2FD03B68042B2CD03B68082B29D05C
:10518C003B680C2B26D07B681B68244A93420BD1BE
:10519C003B68002B1ED03B68042B1BD03B68082BB4
:1051AC0018D03B680C2B15D07B681B681C4A9342AB
:1051BC000BD13B68002B0DD03B68042B0AD03B680D
:1051CC00082B07D03B680C2B04D040F2414115480A
:1051DC00FCF76CFC7B681B6801223968184601F0EF
:1051EC0069FB7B681B680C4A934207D17B681B6880
:1051FC007A681268526C42F400425A647B681B68ED
:10520C007A681268126842F001021A60002318468C
:10521C000837BD4680BD00BF002C01400004004093
:10522C00000800405476000880B582B000AF78606A
:10523C0039607B681B68464A93420BD13B68002B54
:10524C0040D03B68042B3DD03B68082B3AD03B68E0
:10525C000C2B37D07B681B68B3F1804F0BD13B68AC
:10526C00002B2FD03B68042B2CD03B68082B29D06B
:10527C003B680C2B26D07B681B68364A93420BD1BB
:10528C003B68002B1ED03B68042B1BD03B68082BC3
:10529C0018D03B680C2B15D07B681B682E4A9342A8
:1052AC000BD13B68002B0DD03B68042B0AD03B681C
:1052BC00082B07D03B680C2B04D040F261412748E7
:1052CC00FCF7F4FB7B681B6800223968184601F078
:1052DC00F1FA7B681B681E4A934217D17B681B68E6
:1052EC001A6A41F211131340002B0FD17B681B6813
:1052FC001A6A40F244431340002B07D17B681B68A9
:10530C007A681268526C22F400425A647B681B68FB
:10531C001A6A41F211131340002B0FD17B681B68E2
:10532C001A6A40F244431340002B07D17B681B6878
:10533C007A681268126822F001021A607B680122F6
:10534C0083F83D20002318460837BD4680BD00BFBA
:10535C00002C014000040040000800405476000876
:10536C0080B586B000AF7860396000237B61002384
:10537C003B610023FB607B68002B01D1012366E1BC
:10538C007B681B68734A934213D07B681B68B3F12C
:10539C00804F0ED07B681B686F4A934209D07B68A4
:1053AC001B686E4A934204D040F6D7016C48FCF758
:1053BC007DFB7B689B68002B14D07B689B68102B53
:1053CC0010D07B689B68202B0CD07B689B68402B93
:1053DC0008D07B689B68602B04D040F6D8016048ED
:1053EC00FCF764FB7B681B69002B0ED07B681B6988
:1053FC00B3F5807F09D07B681B69B3F5007F04D0BF
:10540C0040F6D9015648FCF751FB7B689B69002B91
:10541C0008D07B689B69802B04D040F6DA01504899
:10542C00FCF744FB3B681B68012B0CD03B681B68EA
:10543C00022B08D03B681B68032B04D040F6DB0121
:10544C004748FCF733FB3B689B68012B0CD03B684F
:10545C009B68022B08D03B689B68032B04D040F65A
:10546C00DC013F48FCF722FB3B689B69012B0CD00D
:10547C003B689B69022B08D03B689B69032B04D0CB
:10548C0040F6DD013648FCF711FB3B685B68002BEE
:10549C0008D03B685B68022B04D040F6DE01304834
:1054AC00FCF704FB3B685B69002B08D03B685B692D
:1054BC00022B04D040F6DF012948FCF7F7FA3B68D1
:1054CC00DB68002B10D03B68DB68042B0CD03B68EE
:1054DC00DB68082B08D03B68DB680C2B04D04FF43E
:1054EC000E611F48FCF7E2FA3B68DB69002B10D019
:1054FC003B68DB69042B0CD03B68DB69082B08D0BC
:10550C003B68DB690C2B04D040F6E1011448FCF736
:10551C00CDFA3B681B690F2B04D940F6E201104809
:10552C00FCF7C4FA3B681B6A0F2B04D940F6E30165
:10553C000B48FCF7BBFA7B6893F83D30DBB2002BD1
:10554C0010D17B68002283F83C207868FCF780FC43
:10555C0008E000BF002C014000040040000800409F
:10556C00547600087B68022283F83D207B681B6818
:10557C007A681268926822F007029A607B681A684F
:10558C007B6804331946104600F05AFE7B681B6892
:10559C009B687B617B681B689B693B617B681B68B4
:1055AC001B6AFB603B681B687A6913437B613B6930
:1055BC0023F4407323F003033B613B689A683B6818
:1055CC009B691B0213433A6913433B613B6923F408
:1055DC00406323F00C033B613B6923F4704323F0DD
:1055EC00F0033B613B68DA683B68DB691B021343E1
:1055FC003A6913433B613B681B691A013B681B6AA0
:10560C001B0313433A6913433B61FB6823F02203EA
:10561C00FB60FB6823F08803FB603B685A683B68BF
:10562C005B691B011343FA681343FB607B681B68BF
:10563C007A699A607B681B683A699A617B681B6817
:10564C00FA681A627B68012283F83D200023184611
:10565C001837BD4680BD00BF80B582B000AF786002
:10566C0039607B681B68244A934213D07B681B68A3
:10567C00B3F1804F0ED07B681B68204A934209D04F
:10568C007B681B681E4A934204D040F666111D4885
:10569C00FCF70CFA3B68002B02D0042B08D00FE06F
:1056AC007B681B6801220021184601F003F916E003
:1056BC007B681B6801220421184601F0FBF80EE000
:1056CC007B681B6801220021184601F0F3F87B6807
:1056DC001B6801220421184601F0ECF800BF7B681E
:1056EC001B687A681268126842F001021A60002383
:1056FC0018460837BD4680BD002C01400004004010
:10570C00000800405476000880B582B000AF786085
:10571C007B681B681B6903F00203022B22D17B6898
:10572C001B68DB6803F00203022B1BD17B681B6830
:10573C006FF002021A617B6801221A777B681B6882
:10574C009B6903F00303002B03D0786800F05DFD28
:10575C0005E0786800F050FD786800F05FFD7B682C
:10576C0000221A777B681B681B6903F00403042B67
:10577C0022D17B681B68DB6803F00403042B1BD16C
:10578C007B681B686FF004021A617B6802221A772F
:10579C007B681B689B6903F44073002B03D078680B
:1057AC0000F033FD05E0786800F026FD786800F025
:1057BC0035FD7B6800221A777B681B681B6903F038
:1057CC000803082B22D17B681B68DB6803F00803F5
:1057DC00082B1BD17B681B686FF008021A617B6871
:1057EC0004221A777B681B68DB6903F00303002B28
:1057FC0003D0786800F009FD05E0786800F0FCFC47
:10580C00786800F00BFD7B6800221A777B681B68B8
:10581C001B6903F01003102B22D17B681B68DB681B
:10582C0003F01003102B1BD17B681B686FF0100268
:10583C001A617B6808221A777B681B68DB6903F4A2
:10584C004073002B03D0786800F0DFFC05E078682B
:10585C0000F0D2FC786800F0E1FC7B6800221A773B
:10586C007B681B681B6903F00103012B0ED17B685D
:10587C001B68DB6803F00103012B07D17B681B68F5
:10588C006FF001021A617868FCF758F87B681B68A6
:10589C001B6903F08003802B0ED17B681B68DB68CF
:1058AC0003F08003802B07D17B681B686FF08002AC
:1058BC001A61786801F0EFF87B681B681B6903F0CC
:1058CC004003402B0ED17B681B68DB6803F0400360
:1058DC00402B07D17B681B686FF040021A61786817
:1058EC0000F0A5FC7B681B681B6903F02003202BD0
:1058FC000ED17B681B68DB6803F02003202B07D1DB
:10590C007B681B686FF020021A61786801F0BAF8A6
:10591C0000BF0837BD4680BD80B584B000AFF860CD
:10592C00B9607A60FB6893F83C30012B01D10223FB
:10593C005CE1FB68012283F83C207B68002B10D0D3
:10594C007B68042B0DD07B68082B0AD07B680C2B52
:10595C0007D07B68182B04D040F61F419A48FCF7FF
:10596C00A5F8BB681B68602B08D0BB681B68702B44
:10597C0004D04FF442619448FCF798F8BB689B68DC
:10598C00002B08D0BB689B68022B04D040F6214149
:10599C008D48FCF78BF8BB681B69002B08D0BB68E3
:1059AC001B69042B04D040F622418748FCF77EF893
:1059BC00FB68022283F83D207B680C2B00F20C81E3
:1059CC0001A252F823F000BF095A0008E55B000859
:1059DC00E55B0008E55B00087B5A0008E55B000806
:1059EC00E55B0008E55B0008EF5A0008E55B000882
:1059FC00E55B0008E55B0008615B0008FB681B6861
:105A0C00724A934213D0FB681B68B3F1804F0ED0DF
:105A1C00FB681B686E4A934209D0FB681B686D4A91
:105A2C00934204D040F62A416748FCF73FF8FB68E4
:105A3C001B68B968184600F069FCFB681B68FA68BB
:105A4C001268926942F008029A61FB681B68FA6856
:105A5C001268926922F004029A61FB681B68FA686A
:105A6C0012689169BA6812690A439A61B5E0FB68D9
:105A7C001B68564A934213D0FB681B68B3F1804FE6
:105A8C000ED0FB681B68524A934209D0FB681B6816
:105A9C00504A934204D040F639414B48FCF706F883
:105AAC00FB681B68B968184600F0C6FCFB681B68ED
:105ABC00FA681268926942F400629A61FB681B688A
:105ACC00FA681268926922F480629A61FB681B681A
