:020000040800F2
:10000000005000204D0100089501000895010008EE
:100010009501000895010008950100080000000006
:100020000000000000000000000000009501000832
:100030009501000800000000950100084523000814
:100040009501000895010008950100089501000838
:100050009501000895010008950100089501000828
:100060009501000895010008950100085523000836
:100070009501000895010008950100089501000808
:100080009501000895010008692300089501000802
:1000900095010008950100089501000895010008E8
:1000A0009501000895010008950100087D230008CE
:1000B00091230008950100089501000895010008AA
:1000C00095010008950100089501000895010008B8
:1000D000950100089501000895010008A523000876
:1000E000B9230008950100089501000800000000F0
:1000F0000000000000000000000000000000000000
:0C01000000000000000000005FF808F1A3
:10010C0010B5054C237833B9044B13B10448AFF345
:10011C0000800123237010BD70000020000000003F
:10012C00DC97000808B5034B1BB103490348AFF338
:10013C00008008BD0000000074000020DC9700085F
:10014C00002103E00B4B5B58435004310A480B4B26
:10015C0042189A42F6D30A4A02E0002342F8043BC2
:10016C00084B9A42F9D302F09FFC08F0C3FE00F052
:10017C00F5F97047A89C00080000002070000020D2
:10018C007000002084030020FEE7000080B58AB0D8
:10019C0000AF484B484A1A60464B4FF480729A6045
:1001AC00444B0022DA60434B00225A61414B4FF41E
:1001BC006022DA613F4B00225A603E4B05221A61E5
:1001CC003C4802F015FD0346002B03D046213B486A
:1001DC0002F050F83A4B3B6140F6FF73FB6140F67E
:1001EC003B133B620F237B610123BB6107F11003BF
:1001FC001946304803F034FB0346002B03D0522140
:10020C002E4802F037F809237B600123BB600723DB
:10021C00FB603B1D1946274803F05EF90346002B93
:10022C0003D05C21254802F025F80C237B600223C7
:10023C00BB603B1D19461F4803F04EF90346002BCB
:10024C0003D065211D4802F015F80D237B600323B4
:10025C00BB603B1D1946174803F03EF90346002BC3
:10026C0003D06E21154802F005F80E237B600423A1
:10027C00BB603B1D19460F4803F02EF90346002BBB
:10028C0003D077210D4801F0F5FF0F237B60052388
:10029C00BB603B1D1946074803F01EF90346002BB3
:1002AC0003D08021054801F0E5FF00BF2837BD468B
:1002BC0080BD00BFF400002000240140F49700082A
:1002CC000002800080B588B000AF78607B681B6846
:1002DC002C4A934251D12C4A2B4B9B6943F400730B
:1002EC009361294B9B6903F40073FB60FB683C230F
:1002FC003B6103237B6107F110031946234804F08B
:10030C007FF902233B6103237B6107F1100319463C
:10031C001F4804F075F91F4B1F4A1A601D4B002231
:10032C005A601C4B00229A601A4B8022DA60194BDF
:10033C004FF480721A61174B4FF480625A61154B5F
:10034C0020229A61134B0022DA61124803F0F6FD69
:10035C000346002B03D0AC21104801F08BFF7B68C7
:10036C000C4A1A620B4A7B6853620022002112204D
:10037C0003F060FD122003F089FD00BF2037BD465D
:10038C0080BD00BF0024014000100240001001405D
:10039C00000C01402401002008000240F4970008E2
:1003AC0080B582B000AF0C4A0B4B5B6943F0010384
:1003BC005361094B5B6903F001037B607B6800228E
:1003CC0000210B2003F036FD0B2003F05FFD00BF76
:1003DC000837BD4680BD00BF0010024080B588B014
:1003EC0000AF584A574B9B6943F010039361554B30
:1003FC009B6903F01003FB60FB68524A514B9B69ED
:10040C0043F0200393614F4B9B6903F02003BB60C7
:10041C00BB684C4A4B4B9B6943F004039361494BBB
:10042C009B6903F004037B607B68464A454B9B69E0
:10043C0043F008039361434B9B6903F008033B6053
:10044C003B6800224FF481513F4804F00DFB002221
:10045C004DF204413D4804F007FB00224FF480713B
:10046C003B4804F001FB4FF400533B61394B7B617B
:10047C000023BB6107F110031946354804F0C0F89E
:10048C0041F2C3233B6103237B6107F1100319463F
:10049C002F4804F0B5F840F2D3633B6103237B6132
:1004AC0007F110031946284804F0AAF80C233B6105
:1004BC0002237B610223FB6107F1100319462248DA
:1004CC0004F09EF84FF481533B6101237B610223BE
:1004DC00FB6107F1100319461B4804F091F842F236
:1004EC0001333B6103237B6107F110031946174865
:1004FC0004F086F84DF204433B6101237B61022337
:10050C00FB6107F110031946104804F079F84FF419
:10051C0080733B6101237B610223FB6107F11003B4
:10052C0019460B4804F06CF804233B6103237B61F0
:10053C0007F110031946084804F062F800BF203791
:10054C00BD4680BD0010024000080140000C014077
:10055C0000100140000021100014014080B500AFD4
:10056C0002F0D6FA2F4B00221A6000F071F8FFF758
:10057C0035FFFFF715FFFFF709FE01F0FBFF02F057
:10058C0073F802F0C1F802F013FA01F017FF00F053
:10059C00C1F802F01FFB0C21234805F0DDFA002105
:1005AC00214805F0D9FA214B01221A70204B012267
:1005BC001A701D4805F006FA18211E4805F09CFE1D
:1005CC0018211D4805F098FE01221C491C4808F012
:1005DC0071F81C4802F076FC00211B4805F060FC09
:1005EC000421194805F05CFC01224FF48061174886
:1005FC0004F03AFA144805F0E5F90C21124805F01C
:10060C00ABFA114B1B6834330C3340F6FC021A6006
:10061C0001F0F8FD00F092F800F0B6FD01F0A4FB3B
:10062C00F8E700BF70010020FC02002068010020E8
:10063C008C0000207C0200203C02002030020020B4
:10064C003C030020F4000020BC020020000C014000
:10065C0080B594B000AF0223BB620123BB631023AF
:10066C00FB6302237B640023BB644FF46013FB64C5
:10067C0007F12803184604F069FA0346002B04D04E
:10068C0040F20111214801F0F5FD0F237B6102239B
:10069C00BB610023FB614FF480633B6200237B62F0
:1006AC0007F114030221184604F0ACFD0346002B9D
:1006BC0004D040F20F11154801F0DCFD02237B60E1
:1006CC004FF44043FB603B1D184604F0EFFF03461C
:1006DC00002B04D04FF48B710C4801F0CBFD04F0CF
:1006EC0095FF02460A4BA3FB02239B09184603F015
:1006FC00E5FB042003F0EEFB002200214FF0FF305D
:10070C0003F098FB00BF5037BD4680BD0898000829
:10071C00D34D621080B500AF00220021282003F0D9
:10072C0089FB282003F0B2FB00220021272003F0D4
:10073C0081FB272003F0AAFB00BF80BD80B400AF73
:10074C00A84B1B78DBB2002B00F00D85A54B0022CB
:10075C001A70A54B1B68A54A1360A34B00221A60A4
:10076C00A34B1B78DBB2072B00F2FD8401A252F8DD
:10077C0023F000BFBF070008A1070008CF0700083F
:10078C00410A0008A10C0008E70E000849110008F6
:10079C0057110008974B00221A80964B1A88964BDB
:1007AC001A80964B00221A70954B00221A7000F09A
:1007BC00DABC924B01221A70914B00221A7000F095
:1007CC00D2BC8E4B1B780D2B00F2C68401A252F8C2
:1007DC0023F000BF19080008270800084D0800087E
:1007EC007308000899080008BF080008E50800080D
:1007FC000B09000831090008570900087D09000899
:10080C00A3090008C9090008190A00087B4B00223B
:10081C001A707B4B00221A700BE17A4B01221A8062
:10082C00794B01221A80734B26221A80724B262296
:10083C001A80724B02221A70714B01221A70F8E066
:10084C00704B01221A80704B01221A80694B38229E
:10085C001A80694B38221A80684B03221A70684B35
:10086C0001221A70E5E0674B01221A80664B0122C7
:10087C001A80604B4C221A805F4B4C221A805F4BC3
:10088C0004221A705E4B01221A70D2E05D4B0122D9
:10089C001A805D4B01221A80564B4C221A80564B03
:1008AC004C221A80554B04221A70554B01221A7097
:1008BC00BFE0544B00221A80534B00221A804D4B40
:1008CC0000221A804C4B00221A804C4B01221A70C9
:1008DC004B4B00221A70ACE04A4B00221A804A4B58
:1008EC0000221A80434B26221A80434B26221A8060
:1008FC00424B05221A70424B01221A7099E0414B6F
:10090C0000221A80404B00221A803A4B38221A805F
:10091C00394B38221A80394B06221A70384B012277
:10092C001A7086E0374B01221A80374B01221A804D
:10093C00304B26221A80304B26221A802F4B022253
:10094C001A702F4B01221A7073E02E4B01221A8061
:10095C002D4B01221A80274B38221A80264B382225
:10096C001A80264B03221A70254B01221A7060E064
:10097C00244B01221A80244B01221A801D4B4C223D
:10098C001A801D4B4C221A801C4B04221A701C4BD3
:10099C0001221A704DE01B4B01221A801A4B0122C6
:1009AC001A80144B26221A80134B26221A80134BC2
:1009BC0003221A70124B01221A703AE0114B0122D9
:1009CC001A80114B01221A800A4B38221A800A4BCA
:1009DC0038221A80094B03221A70094B01221A7013
:1009EC0027E000BF8C000020B4000020B8000020DD
:1009FC0068010020F60100206C010020C0000020DE
:100A0C00F401002004020020740100209B4B012201
:100A1C001A809B4B01221A809A4B4C221A809A4BBB
:100A2C004C221A80994B04221A70994B01221A708D
:100A3C0000BF91E3954B1B780D2B00F28F8301A225
:100A4C0052F823F0890A0008970A0008BD0A00082A
:100A5C00E30A0008090B00082F0B0008550B0008CF
:100A6C007B0B0008A10B0008C70B0008ED0B00085E
:100A7C00130C0008390C00085F0C0008834B002293
:100A8C001A70834B00221A70F6E07C4B00221A80FD
:100A9C007B4B00221A807B4B26221A807A4B262213
:100AAC001A807A4B05221A70794B01221A70E3E0F6
:100ABC00724B01221A80724B01221A80714B002258
:100ACC001A80714B00221A80704B01221A70704BE5
:100ADC0000221A70D0E0694B01221A80684B012267
:100AEC001A80684B26221A80674B26221A80674B85
:100AFC0002221A70664B01221A70BDE05F4B012274
:100B0C001A805F4B01221A805E4B38221A805E4B92
:100B1C0038221A805D4B03221A705D4B01221A7029
:100B2C00AAE0564B00221A80554B00221A80554BD6
:100B3C0038221A80544B38221A80544B06221A70D1
:100B4C00534B01221A7097E04C4B00221A804C4BED
:100B5C0000221A804B4B4C221A804B4B4C221A8091
:100B6C004A4B07221A704A4B01221A7084E0434BFD
:100B7C0000221A80424B00221A80424B4C221A80CF
:100B8C00414B4C221A80414B07221A70404B0122D8
:100B9C001A7071E0394B00221A80394B00221A80EE
:100BAC00384B26221A80384B26221A80374B0522C6
:100BBC001A70374B01221A705EE0304B00221A80FB
:100BCC002F4B00221A802F4B38221A802E4B3822A2
:100BDC001A802E4B06221A702D4B01221A704BE0F4
:100BEC00264B00221A80264B00221A80254B4C22C1
:100BFC001A80254B4C221A80244B07221A70244B46
:100C0C0001221A7038E01D4B00221A801C4B002266
:100C1C001A801C4B26221A801B4B26221A801B4B37
:100C2C0005221A701A4B01221A7025E0134B002270
:100C3C001A80134B00221A80124B38221A80124B46
:100C4C0038221A80114B06221A70114B01221A708D
:100C5C0012E00A4B00221A80094B00221A80094B21
:100C6C004C221A80084B4C221A80084B07221A700F
:100C7C00074B01221A7000BF70E200BF0402002073
:100C8C0074010020F60100206C010020C00000203F
:100C9C00F4010020A74B1B780D2B00F2618201A2FE
:100CAC0052F823F0E90C0008F70C00081D0D0008A1
:100CBC00430D0008690D00088F0D0008B50D0008E4
:100CCC00DB0D0008010E0008270E00084D0E000871
:100CDC00730E0008990E0008BF0E0008954B0022F9
:100CEC001A70954B00221A70F6E0944B01221A8070
:100CFC00934B00221A80934B26221A80924B262269
:100D0C001A808C4B08221A708B4B01221A70E3E06C
:100D1C008A4B01221A808A4B00221A80894B262288
:100D2C001A80894B26221A80824B08221A70824B19
:100D3C0001221A70D0E0814B01221A80804B0022D4
:100D4C001A80804B38221A807F4B38221A80794BBC
:100D5C0009221A70784B01221A70BDE0774B0122E0
:100D6C001A80774B00221A80764B4C221A80764BD5
:100D7C004C221A806F4B0A221A706F4B01221A7088
:100D8C00AAE06E4B01221A806D4B00221A806D4B2B
:100D9C0026221A806C4B26221A80664B08221A7067
:100DAC00654B01221A7097E0644B01221A80644B48
:100DBC0000221A80634B38221A80634B38221A8027
:100DCC005C4B09221A705C4B01221A7084E05B4B5D
:100DDC0001221A805A4B00221A805A4B4C221A803C
:100DEC00594B4C221A80534B0A221A70524B012237
:100DFC001A7071E0514B01221A80514B00221A805B
:100E0C00504B38221A80504B38221A80494B0922F9
:100E1C001A70494B01221A705EE0484B01221A806D
:100E2C00474B00221A80474B4C221A80464B4C22CF
:100E3C001A80404B0A221A703F4B01221A704BE069
:100E4C003E4B01221A803E4B00221A803D4B4C2215
:100E5C001A803D4B4C221A80364B0A221A70364BA4
:100E6C0001221A7038E0354B00221A80344B0022D4
:100E7C001A80344B00221A80334B00221A802D4BDF
:100E8C0001221A702C4B00221A7025E02B4B0022E9
:100E9C001A802B4B01221A802A4B26221A802A4BAD
:100EAC0026221A80234B0B221A70234B01221A7014
:100EBC0012E0224B00221A80214B01221A80214B76
:100ECC0038221A80204B38221A801A4B0C221A70A6
:100EDC00194B01221A7000BF42E1164B1B780D2BE7
:100EEC0000F2408101A252F823F000BF310F00083C
:100EFC00590F00087F0F0008A50F0008CB0F000842
:100F0C00F10F0008171000083D10000863100008CE
:100F1C0089100008AF100008D5100008FB1000085D
:100F2C0021110008034B00221A70034B00221A7087
:100F3C0003E100BFC0000020F401002004020020E7
:100F4C0074010020F60100206C010020884B002267
:100F5C001A80884B01221A80874B26221A80874BD5
:100F6C0026221A80864B0B221A70864B01221A708D
:100F7C00E3E07F4B00221A807E4B01221A807E4BCD
:100F8C0026221A807D4B26221A807D4B0B221A704A
:100F9C007C4B01221A70D0E0754B00221A80754BE5
:100FAC0001221A80744B38221A80744B38221A8012
:100FBC00734B0C221A70734B01221A70BDE06C4BF0
:100FCC0000221A806B4B01221A806B4B4C221A8028
:100FDC006A4B4C221A806A4B0D221A70694B012203
:100FEC001A70AAE0624B00221A80624B01221A800E
:100FFC00614B26221A80614B26221A80604B0B22F1
:10100C001A70604B01221A7097E0594B00221A801B
:10101C00584B01221A80584B38221A80574B3822D1
:10102C001A80574B0C221A70564B01221A7084E00E
:10103C004F4B00221A804F4B01221A804E4B4C22F0
:10104C001A804E4B4C221A804D4B0D221A704D4B70
:10105C0001221A7071E0464B00221A80454B002287
:10106C001A80454B00221A80444B00221A80444BB4
:10107C0001221A70434B00221A705EE03C4B012295
:10108C001A803C4B00221A803B4B26221A803B4B89
:10109C0026221A803A4B08221A703A4B01221A70F7
:1010AC004BE0334B01221A80324B00221A80324B18
:1010BC0038221A80314B38221A80314B09221A708F
:1010CC00304B01221A7038E0294B00221A80294B30
:1010DC0001221A80284B38221A80284B38221A8079
:1010EC00274B0C221A70274B01221A7025E0204B3B
:1010FC0000221A801F4B01221A801F4B4C221A808F
:10110C001E4B4C221A801E4B0D221A701D4B0122B5
:10111C001A7012E0164B00221A80164B01221A800C
:10112C00154B4C221A80154B4C221A80144B0D2255
:10113C001A70144B01221A7000BF13E0104B0122DD
:10114C001A70104B02221A700DE00D4B01221A700E
:10115C000C4B03221A7006E000BF04E000BF02E053
:10116C0000BF00E000BF00BFBD4680BC704700BFA1
:10117C000402002074010020F60100206C01002004
:10118C00C0000020F401002080B500AF074B1B68A5
:10119C00632B08D9054B00221A6000F009F800F007
:1011AC00A3F900F04FFA00BF80BD00BF94000020EF
:1011BC0080B400AF954B1B78002B02D0012B1AD0BA
:1011CC0079E1934B1B78DBB2012B03D18F4B0122BE
:1011DC001A7070E18F4B1A888F4B1A808F4B1A88BC
:1011EC008F4B1A808F4B1A888F4B1A808F4B1A8813
:1011FC008F4B1A805FE1864B1B78DBB2002B02D140
:10120C00824B00221A70874B1B88012B40F08B807D
:10121C00864B1B88012B40F08680864B1B889BB22B
:10122C001A46854B1B88C3F57A7303339A4222DA2C
:10123C00824B1B889BB21A46814B1B88C3F58E636D
:10124C0006339A4217DA734B1A88734B1A80734B16
:10125C001A88734B1A80734B1A88734B1A80734B12
:10126C001A88734B1A80764B00221A80744B1A889A
:10127C00714B1A8056E06F4B1B889BB240F2EA32DE
:10128C00934216D86D4B1B889BB240F27642934228
:10129C000FD9614B26221A80614B26221A80644B8F
:1012AC0001221A80604B00221A80654B50221A8052
:1012BC0038E0604B1B889BB2B3F57B7F16D35F4B3A
:1012CC001B889BB240F2754293420FD8524B262298
:1012DC001A80534B26221A80534B01221A80544BEE
:1012EC0000221A80544B50221A801BE0514B1B8851
:1012FC009BB2B3F57B7FC0F0DA80504B1B889BB25E
:10130C0040F27642934240F2D280434B00221A8044
:10131C00434B00221A80444B00221A80444B00227B
:10132C001A80C4E0C3E03F4B1B88002B40F0AE801A
:10133C003E4B1B88002B40F0A980424B1B889BB274
:10134C001A46414B1B88C3F5886305339A4222DA4F
:10135C003E4B1B889BB21A463D4B1B88C3F5A163C1
:10136C0001339A4217DA2B4B1A882B4B1A802B4BD2
:10137C001A882B4B1A802B4B1A882B4B1A802B4B11
:10138C001A882B4B1A80324B00221A80304B1A8849
:10139C002D4B1A8079E02B4B1B889BB240F24542B7
:1013AC00934215D9294B1B889BB2B3F5A16F0FD86B
:1013BC00194B26221A801A4B26221A801A4B01220C
:1013CC001A801B4B00221A801F4B50221A805CE0A3
:1013DC001C4B1B889BB240F2444293423AD81B4BA5
:1013EC001B889BB240F20952934233D90A4B2622F6
:1013FC001A800B4B26221A800D4B01221A800A4BA5
:10140C0000221A80124B50221A803EE0C1000020AC
:10141C00F40100206C010020A4000020F601002043
:10142C00A6000020740100206A01002004020020A4
:10143C002E02002038020020C2000020880100206B
:10144C00C400002084010020C600002032020020CD
:10145C00C80000201A4B1B889BB240F245429342B5
:10146C0027D9184B1B889BB240F20952934220D9C2
:10147C00154B00221A80154B00221A80144B0022A7
:10148C001A80144B00221A8013E012E0124B1A88B7
:10149C000D4B1A80114B1A880C4B1A80104B1A8862
:1014AC000B4B1A800F4B1A880A4B1A8002E000BFB4
:1014BC0000E000BF00BF00BFBD4680BC704700BF4E
:1014CC008401002032020020A4000020A60000208D
:1014DC006A0100202E0200206C010020F601002081
:1014EC00740100200402002080B584B002AF464B8A
:1014FC001B685B6A9AB2454B1A80454B1B685B6A4A
:10150C009AB2444B1A80444B1B68002B0AD13F4BB8
:10151C0000221A803F4B00221A803F4B1B6801337C
:10152C003D4A13603D4B1A883D4B1B889A421FD194
:10153C003B4B1B88012B0BD1364B1B8847F230528F
:10154C00934205D9334B1B88DB439AB2314B1A803B
:10155C00324B1B88002B0BD12C4B1B8847F2305283
:10156C00934205D9294B1B88DB439AB2274B1A802F
:10157C00264B1B881A462B4B1B88D31A002BB8BF43
:10158C005B429AB2284B1A80224B1B881A46274B77
:10159C001B88D31A002BB8BF5B429AB2244B1A801B
:1015AC001A4B1A881F4B1A801A4B1A881F4B1A8019
:1015BC001A4B1A881A4B1B889A4221D11A4B1B883A
:1015CC001A461B4B1B8813445B101A46194B1B689D
:1015DC001344184A13600D4B1B881A460D4B1B887D
:1015EC0000931346144A6421144807F0A7FC786052
:1015FC007B689AB24FF0FF331049114806F0C2FFD6
:10160C0000BF0837BD4680BD7C020020FC010020D5
:10161C003C02002086010020CC0000206A01002042
:10162C002E020020A80000202C020020AA0000207E
:10163C0076010020B40000201C98000890010020C6
:10164C003C03002080B584B000AF6423FB8164238D
:10165C00BB8150237B8150233B810023FB800023E3
:10166C00BB809E4B1B78002B02D0012B52D030E15B
:10167C009B4B1B78DBB2012B04D0994B1B78DBB254
:10168C00022B03D1954B01221A7022E1954B1B685A
:10169C0034330C3300221A60924B1B6800225A63BD
:1016AC000C21904804F0D0FA00218E4804F0CCFABA
:1016BC0000224FF480518C4803F0D6F900224FF4ED
:1016CC0080418A4803F0D0F900224FF480518748BA
:1016DC0003F0CAF900224FF40041844803F0C4F926
:1016EC000121012003F00AFA7E4B1B6834330C33C2
:1016FC0000221A607B4B1B6800225A630C2179482C
:10170C0004F02AFA0021774804F026FA784B0022DC
:10171C001A60DEE0774B1B88002B06D0764B1B88BB
:10172C00002B02D0724B00221A606D4B1B78DBB27F
:10173C00002B10D1714B1B88002B0CD1704B1B88CC
:10174C00002B08D16A4B1B68B3F57A7F03D9634B26
:10175C0000221A70BCE0674B1A88684B1B88D31A9E
:10176C009BB21AB2674B1A80634B1A88644B1B8866
:10177C00D31A9BB21AB2644B1A80644BB3F9003083
:10178C009AB2604BB3F900309BB213449BB21AB2BD
:10179C005E4B1A805E4BB3F900309AB25A4BB3F9D8
:1017AC0000309BB213449BB21AB2594B1A80554B62
:1017BC00B3F900309AB2574BB3F900309BB2D31A3D
:1017CC009BB21AB2544B1A804F4BB3F900309AB2F9
:1017DC00524BB3F900309BB2D31A9BB21AB2504B96
:1017EC001A80484BB3F900204A4B1A80464BB3F988
:1017FC0000204A4B1A80FB89424AB2F9002002FBB6
:10180C0003F27B894149B1F9001001FB03F31A443F
:10181C00FB884149B1F9001001FB03F313441A464C
:10182C00404B1A60BB89384AB2F9002002FB03F224
:10183C003B893749B1F9001001FB03F31A44BB880B
:10184C003749B1F9001001FB03F313441A46364B28
:10185C001A60344B1B68002B02DA324B00221A60E0
:10186C00314B1B68002B02DA2F4B00221A602D4BD8
:10187C001B68B3F57A4F03DD2A4B4FF47A421A609A
:10188C00294B1B68B3F57A4F03DD274B4FF47A4293
:10189C001A60144B1B68244A126892B25A63114B9B
:1018AC001B6834330C331F4A126892B21A601F4BF8
:1018BC001B88DBB21A464FF480711D4803F0D4F834
:1018CC001C4B1B88DBB21A460421084803F0CCF8E9
:1018DC0000BF00BF1037BD4680BD00BFD000002048
:1018EC00F4010020FC02002000080140000C014023
:1018FC0090000020A4000020A60000202C02002054
:10190C0076010020D2000020D4000020D600002058
:10191C00D8000020DA000020DC000020DE000020CF
:10192C00E0000020AC000020B00000206A01002084
:10193C00001001402E020020B0B58AB000AFB84BA9
:10194C001B780A2B00F2F88101A252F823F000BF99
:10195C0089190008BD190008271A00086F1A000819
:10196C00BF1A0008291B0008711B0008C11B0008C6
:10197C00711C0008B91C0008071D0008A94B1B7836
:10198C00DBB2022B40F0D781A54B01221A700C213F
:10199C00A54804F059F9A44B1B6834330C330022CE
:1019AC001A60A24B00221A60A14B00221A60C2E1FD
:1019BC000C219D4804F048F99B4B1B6834330C33C5
:1019CC0041F6BC321A600C21974804F0C5F8994BCB
:1019DC001B684FF47A71184600F0D8F90346002BB7
:1019EC0002D08F4B02221A70934A944B15461C4618
:1019FC000FCC28606960AA60EB6003CC2861696138
:101A0C0023882B8319237B627B6A9AB24FF0FF33B6
:101A1C0089498B4806F0B6FD8EE101224FF48061B6
:101A2C00884803F021F87E4B03221A70824A864BB9
:101A3C0014461D460FCD20606160A260E3602868EB
:101A4C002061AB88AA79A3821346A37516233B6247
:101A5C003B6A9AB24FF0FF337749794806F092FD12
:101A6C006AE100BF714B1B68002BFBD06F4B1B68EE
:101A7C00764A13606D4B00221A60694B04221A706F
:101A8C006D4A734B15461C460FCC28606960AA60E2
:101A9C00EB6003CC2861696123782B761823FB61FA
:101AAC00FB699AB24FF0FF336349654806F06AFD53
:101ABC0042E10C215C4804F0C7F85B4B1B683433E3
:101ACC000C3340F6FC021A600C21574804F044F821
:101ADC00584B1B684FF47A71184600F057F90346BF
:101AEC00002B02D04E4B05221A70534A594B154607
:101AFC001C460FCC28606960AA60EB6003CC28619F
:101B0C00696123882B831923BB61BB699AB24FF09F
:101B1C00FF3349494A4806F035FD0DE101224FF4E7
:101B2C008061484802F0A0FF3D4B06221A70424AE1
:101B3C00494B14461D460FCD20606160A260E360E6
:101B4C0028682061AB88AA79A3821346A375162353
:101B5C007B617B699AB24FF0FF333749384806F006
:101B6C0011FDE9E000BF314B1B68002BFBD02F4B64
:101B7C001B68364A53602D4B00221A60284B0722F3
:101B8C001A702D4A354B15461C460FCC28606960DF
:101B9C00AA60EB6003CC2861696123782B7618234B
:101BAC003B613B699AB24FF0FF332349244806F05E
:101BBC00E9FCC1E00C211C4804F046F81A4B1B68E8
:101BCC0034330C334FF448721A600C21164803F06E
:101BDC00C3FF184B1B684FF47A71184600F0D6F807
:101BEC000346002B02D00E4B08221A70124A1C4BD3
:101BFC0015461C460FCC28606960AA60EB6003CCCC
:101C0C002861696123882B831923FB60FB689AB2D6
:101C1C004FF0FF3308490A4806F0B4FC8CE000BFD3
:101C2C00E2000020F4010020BC020020BC000020D7
:101C3C00B40000209C00002090010020389800087F
:101C4C003C030020000C014054980008780100204F
:101C5C006C98000888980008A4980008BC980008A4
:101C6C00D898000801224FF48061354802F0FCFE40
:101C7C00344B09221A70344A344B14461D460FCD8E
:101C8C0020606160A260E36028682061AB88AA795B
:101C9C00A3821346A3751623BB60BB689AB24FF0A0
:101CAC00FF3329492A4806F06DFC45E000BF294B5B
:101CBC001B68002BFBD0274B1B68274A9360254BD6
:101CCC0000221A601F4B0A221A701F4A234B15461A
:101CDC001C460FCC28606960AA60EB6007CC2861B9
:101CEC006961AA611B237B607B689AB24FF0FF335A
:101CFC001549174806F046FC1EE0124B00221A70DC
:101D0C00174B01221A70104A164B15461C460FCC65
:101D1C0028606960AA60EB602068286123792B75C4
:101D2C0014233B603B689AB24FF0FF3306490848D6
:101D3C0006F028FC00E000BF00BF2837BD46B0BD50
:101D4C00000C0140E200002090010020F4980008F3
:101D5C003C030020BC000020780100200C990008F6
:101D6C00F40100202899000880B500AF064B1B68D1
:101D7C006421184600F00AF80346002B01D0FFF747
:101D8C00DBFD00BF80BD00BF9800002080B483B095
:101D9C0000AF786039607A683B689A4203DB0023B5
:101DAC007B60012300E0002318460C37BD4680BC45
:101DBC007047000080B582B000AF78607B681B680C
:101DCC005D4A934240F0B3805C4B1B78423B352B11
:101DDC0000F2A38001A252F823F000BFC91E000834
:101DEC00271F00082F1F0008271F0008C11E00080E
:101DFC00271F0008271F0008271F0008271F00089F
:101E0C00271F0008DF1E0008271F0008271F0008D7
:101E1C00271F0008271F0008271F0008E71E0008BF
:101E2C00271F0008271F00080B1F0008D11E0008E1
:101E3C00EF1E0008271F0008271F0008271F000897
:101E4C00271F0008271F0008271F0008271F00084E
:101E5C00271F0008271F0008271F0008271F00083E
:101E6C00271F0008271F0008271F0008271F00082E
:101E7C00271F0008271F0008271F0008271F00081E
:101E8C00271F0008271F0008271F0008271F00080E
:101E9C00271F0008271F0008271F0008271F0008FE
:101EAC00271F0008271F0008191F0008271F0008FC
:101EBC00FD1E0008224B02221A7033E0204B032235
:101ECC001A702FE01E4B01221A701E4B01221A7041
:101EDC0028E01B4B05221A7024E0194B04221A70BF
:101EEC0020E0174B06221A70164B01221A7019E0CB
:101EFC00134B06221A70134B01221A7012E0104B6E
:101F0C0007221A700F4B01221A700BE00C4B0722A0
:101F1C001A700C4B01221A7004E00A4B01221A7041
:101F2C0000E000BF01220549074806F0C3FB00BFD3
:101F3C000837BD4680BD00BF00480040300200207D
:101F4C00680100208C0000203C03002080B582B08A
:101F5C0000AF7860194B1A88184B5B89D31A9AB268
:101F6C00174B1A80154BDA88144B1B8AD31A9AB26A
:101F7C00144B1A80114B5A88104B9B89D31A9AB266
:101F8C00114B1A800D4B9A880C4BDB89D31A9AB2E1
:101F9C000E4B1A80094B1B891A46084B5B8A13445B
:101FAC00DA0F13445B109AB2094B1A80786801F06F
:101FBC003BF900BF0837BD4680BD00BF18020020AA
:101FCC008401002032020020380200208801002009
:101FDC008A01002080B582B000AF78607B681B68F6
:101FEC00B3F1804F70D13A4B1B780133DAB2384BD6
:101FFC001A70384B1B680133364A1360364B1B681A
:10200C000133354A1360354B1B680133334A136077
:10201C00334B1B680133324A1360324B1B6801335C
:10202C00304A13602A4B1B78013B032B48D801A282
:10203C0052F823F051200008832000088F2000085C
:10204C00C120000801224FF48051274802F00CFDFA
:10205C0001224FF48041254802F006FD01224FF485
:10206C008051224802F000FD01224FF400411F482C
:10207C0002F0FAFC28E00A221D491E4800F0EAFF93
:10208C0022E000224FF48051174802F0EDFC0022B0
:10209C004FF48041154802F0E7FC00224FF48051C8
:1020AC00124802F0E1FC00224FF400410F4802F00C
:1020BC00DBFC09E00A220E490E4800F0CBFF03E0DE
:1020CC00034B00221A70FFE700BF0837BD4680BDE6
:1020DC00E300002090000020A000002094000020CD
:1020EC00980000209C00002000080140000C0140DA
:1020FC0018020020F400002080B584B000AF786096
:10210C0000224FF48061114802F0AEFC7B681B7F0B
:10211C00022B16D104210E4805F09EF802460D4BF9
:10212C001A600C4B1B680C4A64210C4806F006FF25
:10213C00F860FB689AB24FF0FF330849084806F084
:10214C0021FA00BF1037BD4680BD00BF000C014016
:10215C00BC020020BC000020409900089001002027
:10216C003C03002090B585B000AF0346FB801E4BAE
:10217C001B78002B14D01D4B01221A701C4A1D4BCE
:10218C00144607CB20606160A2600B23FB60FB68E8
:10219C009AB24FF0FF331649174806F0F3F915E0E1
:1021AC00124B00221A70124A144B144607CB2060B3
:1021BC006160A2601B7823730C23BB60BB689AB26E
:1021CC004FF0FF330A490C4806F0DCF9064B1B783C
:1021DC00DB43DAB2044B1A70094B01221A7000BFB0
:1021EC001437BD4690BD00BFE400002068010020FC
:1021FC0090010020589900083C03002064990008C5
:10220C008C00002080B500AF114B1B6834330C33AD
:10221C0041F6BC321A600C210D4803F09DFC0C4BAE
:10222C001B6834330C3340F6FC021A600C2108484E
:10223C0003F092FC064B1B6834330C334FF448729A
:10224C001A600C21024803F087FC00BF80BD00BF60
:10225C00BC02002080B582B000AF78600122202142
:10226C00034802F001FC00BF0837BD4680BD00BF2B
:10227C000008014080B483B000AF78603960FEE79D
:10228C0080B483B000AF7860396000BF0C37BD46B6
:10229C0080BC704780B582B000AF254A244B9B6947
:1022AC0043F001039361224B9B6903F001033B60F4
:1022BC003B68032001F09EFD002200216FF00B0013
:1022CC0001F0B8FD002200216FF00A0001F0B2FD10
:1022DC00002200216FF0090001F0ACFD002200216A
:1022EC006FF0040001F0A6FD002200216FF0030046
:1022FC0001F0A0FD002200216FF0010001F09AFD19
:10230C00002200214FF0FF3001F094FD094B5B6877
:10231C007B607B6823F0E0637B607B6843F0007339
:10232C007B60044A7B68536000BF0837BD4680BDA4
:10233C00001002400000014080B500AF00F02EFC00
:10234C0001F0F0FD00BF80BD80B500AF024802F087
:10235C0017F800BF80BD00BF2401002080B500AF7E
:10236C00024800F0B5FF00BF80BD00BFF4000020A4
:10237C0080B500AF024804F017F800BF80BD00BF65
:10238C00BC02002080B500AF024804F00DF800BF7D
:10239C0080BD00BFFC02002080B500AF024806F0F3
:1023AC00DDF900BF80BD00BF3C03002080B500AF4D
:1023BC004FF4005002F08AFB00BF80BD80B59EB088
:1023CC0000AF694B694A1A60674B24225A60664B0E
:1023DC0000229A60644B4FF6FF72DA60624B002267
:1023EC001A61614B00225A615F4B80229A615E48F0
:1023FC0003F066FA0346002B03D049215C48FFF733
:10240C0039FF4FF48053BB6607F1680319465648F1
:10241C0004F08CFB0346002B03D04F215448FFF7EC
:10242C0029FF514803F008FB0346002B03D054212D
:10243C004F48FFF71FFF4C4803F0A2FC0346002B4C
:10244C0003D059214A48FFF715FF04237B6550231D
:10245C00BB650023FB6500233B6608237B6607F105
:10246C0054031946404804F063FE0346002B03D086
:10247C0063213F48FFF7FEFE00237B640123BB640E
:10248C000023FB6408233B6507F144030022194633
:10249C00354804F091F80346002B03D06C213448E6
:1024AC00FFF7E8FE02237B640223BB6400233B6539
:1024BC0007F14403042219462B4804F07DF8034627
:1024CC00002B03D074212A48FFF7D4FE0023FB63B2
:1024DC0000233B6407F13C031946234805F002FF37
:1024EC000346002B03D07B212148FFF7C3FE60235A
:1024FC003B6200237B620023BB6200233B6300230F
:10250C007B630023BB6307F120030C22194616489A
:10251C0004F09EF90346002B03D086211448FFF7E4
:10252C00A9FE00237B600023BB600023FB6000231B
:10253C003B6100237B614FF40053BB610023FB61C3
:10254C003B1D1946084805F001FE0346002B03D03D
:10255C0092210748FFF78EFE034800F0D5F900BF23
:10256C007837BD4680BD00BFBC020020002C014066
:10257C007499000880B58EB000AF394B4FF0804293
:10258C001A60374B01225A60354B00229A60344B4B
:10259C004FF47A42DA60324B00221A61304B00223F
:1025AC009A612F4803F08CF90346002B03D0A72126
:1025BC002C48FFF75FFE4FF48053BB6207F12803F2
:1025CC001946274804F0B2FA0346002B03D0AD217C
:1025DC002448FFF74FFE224803F02EFA0346002B47
:1025EC0003D0B2211F48FFF745FE00233B620023B6
:1025FC007B6207F120031946194805F073FE034668
:10260C00002B03D0B9211748FFF734FE60237B6001
:10261C000023BB600023FB6000237B613B1D002279
:10262C0019460F4804F014F90346002B03D0C221BD
:10263C000C48FFF71FFE3B1D0C221946084804F0FE
:10264C0007F90346002B03D0C7210648FFF712FEFB
:10265C00034800F059F900BF3837BD4680BD00BFB4
:10266C00FC0200207499000880B58CB000AF234B9D
:10267C00234A1A60214B00225A60204B00229A6098
:10268C001E4B4FF6FF72DA601C4B00221A611B4B7B
:10269C0080229A610323FB6000233B6101237B6151
:1026AC000023BB610823FB6100233B6201237B6297
:1026BC000023BB620823FB6207F10C0319460F4889
:1026CC0003F09EFC0346002B03D0E4210D48FFF7DA
:1026DC00D1FD00237B600023BB603B1D19460748DE
:1026EC0005F000FE0346002B03D0EB210548FFF755
:1026FC00C1FD00BF3037BD4680BD00BF7C0200204D
:10270C00000400407499000880B58CB000AF244BD5
:10271C00244A1A60224B00225A60214B00229A60F4
:10272C001F4B4FF6FF72DA601D4B00221A611C4BD7
:10273C0080229A610323FB6000233B6101237B61B0
:10274C000023BB610823FB6100233B6201237B62F6
:10275C000023BB620823FB6207F10C0319461048E7
:10276C0003F04EFC0346002B04D04FF483710E484B
:10277C00FFF780FD00237B600023BB603B1D1946E7
:10278C00074805F0AFFD0346002B04D040F20D11B5
:10279C000548FFF76FFD00BF3037BD4680BD00BF59
:1027AC003C020020000800407499000880B588B0F5
:1027BC0000AF78607B681B68204A934221D1204A85
:1027CC001F4B9B6943F4006393611D4B9B6903F49E
:1027DC000063FB60FB684FF480733B6100237B61FB
:1027EC000023BB6107F110031946164801F008FFDE
:1027FC00002200211B2001F01DFB1B2001F046FBD9
:10280C0018E07B681B68B3F1804F13D10C4A0C4B5A
:10281C00DB6943F00103D361094BDB6903F001036E
:10282C00BB60BB68002200211C2001F003FB1C20B4
:10283C0001F02CFB00BF2037BD4680BD002C0140B1
:10284C00001002400008014080B58AB000AF7860EB
:10285C007B681B68274A93422AD1274A264BDB699F
:10286C0043F00203D361244BDB6903F002033B61A9
:10287C003B6930237B610023BB610023FB6107F1C3
:10288C00140319461D4801F0BBFE1D4B5B687B62AF
:10289C007B6A23F440637B627B6A43F0E0637B6278
:1028AC007B6A43F400637B62154A7B6A53601CE0CD
:1028BC007B681B68134A934217D10F4A0E4BDB6996
:1028CC0043F00403D3610C4BDB6903F00403FB609E
:1028DC00FB68C0237B610023BB610023FB6107F114
:1028EC0014031946054801F08BFE00BF2837BD467E
:1028FC0080BD00BF0004004000100240000C0140ED
:10290C00000001400008004080B588B000AF78603E
:10291C007B681B68224A93420DD14FF40063FB6025
:10292C0002233B610223BB6107F10C0319461D48CE
:10293C0001F066FE30E07B681B68B3F1804F2BD151
:10294C004FF40063FB6002233B610223BB6107F180
:10295C000C031946144801F053FE4FF40043FB607E
:10296C0002233B610223BB6107F10C0319460D489E
:10297C0001F046FE0D4B5B68FB61FB6923F4407371
:10298C00FB61FB6943F0E063FB61FB6943F440735B
:10299C00FB61064AFB69536000BF2037BD4680BD12
:1029AC00002C014000080140000C014000000140D7
:1029BC0080B500AF124B134A1A60114B4FF41652EC
:1029CC005A600F4B00229A600D4B0022DA600C4BC0
:1029DC0000221A610A4B0C225A61094B00229A619F
:1029EC00074B0022DA61064805F024FD0346002B54
:1029FC0003D042210448FFF73DFC00BF80BD00BF5F
:102A0C003C030020004800408899000880B588B03D
:102A1C0000AF78607B681B681F4A934237D11F4A0E
:102A2C001E4BDB6943F48023D3611C4BDB6903F43D
:102A3C008023BB60BB684FF48063FB6002233B6167
:102A4C000323BB6107F10C031946154801F0D8FDAF
:102A5C004FF40063FB6000233B6100237B6107F1B3
:102A6C000C0319460E4801F0CBFD0E4B5B68FB6165
:102A7C00FB6923F03003FB61FB6943F0E063FB610E
:102A8C00FB6943F01003FB61064AFB69536000BF0E
:102A9C002037BD4680BD00BF0048004000100240FA
:102AAC00001001400000014080B400AF154A154BE6
:102ABC001B6843F0010313601249124B5A68124B06
:102ACC0013404B600F4A0F4B1B6823F0847323F4A5
:102ADC00803313600B4A0B4B1B6823F48023136069
:102AEC00084A084B5B6823F4FE035360054B4FF414
:102AFC001F029A60054B4FF000629A6000BFBD4602
:102B0C0080BC7047001002400000FFF800ED00E0B0
:102B1C0080B500AF084A084B1B6843F010031360E4
:102B2C00032001F067F9002000F008F8FFF7B2FB72
:102B3C000023184680BD00BF0020024080B582B043
:102B4C0000AF7860124B1A68124B1B7819464FF481
:102B5C007A73B3FBF1F3B2FBF3F3184601F0AEF961
:102B6C000346002B01D001230EE07B680F2B0AD803
:102B7C00002279684FF0FF3001F05CF9064A7B685F
:102B8C001360002300E0012318460837BD4680BDC2
:102B9C0000000020080000200400002080B400AFDA
:102BAC00054B1B781A46054B1B681344034A1360EC
:102BBC0000BFBD4680BC7047080000207C0300208D
:102BCC0080B400AF024B1B681846BD4680BC7047F2
:102BDC007C03002080B400AF044A044B1B6823F034
:102BEC000203136000BFBD4680BC704710E000E0DC
:102BFC0080B586B000AF78600023FB7500233B6185
:102C0C000023BB600023FB607B68002B01D10123F8
:102C1C0053E17B681B689F4A934209D07B681B6811
:102C2C009D4A934204D04FF4C1719C48FFF728FB96
:102C3C007B685B68002B09D07B685B68B3F5006F21
:102C4C0004D040F283119548FFF71AFB7B689B6810
:102C5C00002B09D07B689B68B3F5807F04D04FF4C0
:102C6C00C2718E48FFF70CFB7B68DB68002B08D029
:102C7C007B68DB68012B04D040F285118748FFF795
:102C8C00FFFA7B68DB69002B22D07B68DB69B3F52C
:102C9C00003F1DD07B68DB69B3F5C02F18D07B6873
:102CAC00DB69B3F5002F13D07B68DB69B3F5202FFC
:102CBC000ED07B68DB69B3F5402F09D07B68DB69EC
:102CCC00B3F5602F04D04FF4C3717448FFF7D8FAF2
:102CDC007B689B68002B2AD07B681B69002B03D078
:102CEC007B681B69102B04D94FF4C5716B48FFF737
:102CFC00C7FA7B685B69002B08D07B685B69012B8A
:102D0C0004D040F28B116548FFF7BAFA7B685B6917
:102D1C00002B0CD07B689B69002B03D07B689B69D4
:102D2C00082B04D94FF4C7715C48FFF7A9FA7B68EC
:102D3C009B6A002B09D17B680022DA627B68002237
:102D4C0083F824207868FDF7BDFA786800F0E2FE7D
:102D5C000346FB757B689B6A03F01003002B40F065
:102D6C00A380FB7D002B40F09F807B689B6A23F443
:102D7C00885323F0020343F002027B689A627B685B
:102D8C005A687B68DB691A437B68DB685B0013431A
:102D9C00BA681343BB607B689B68B3F5807F03D034
:102DAC007B689B68012B02D14FF4807300E00023F9
:102DBC003A6913433B617B685B69012B19D17B68D2
:102DCC00DB68002B09D17B689B69013B5A033B698B
:102DDC00134343F400633B610BE07B689B6A43F055
:102DEC0020027B689A627B68DB6A43F001027B6895
:102DFC00DA627B681B687A681268526822F469414F
:102E0C003A690A435A607B681A687B681B68996840
:102E1C00234B0B40B9680B4393607B689B68B3F5FD
:102E2C00807F03D07B689B68012B04D17B681B6976
:102E3C00013B1B05FB607B681B687A681268D26AD1
:102E4C0022F47001FA680A43DA627B681B689A689C
:102E5C00144B1340BA6893420BD17B680022DA62A0
:102E6C007B689B6A23F0030343F001027B689A6240
:102E7C0022E07B689B6A23F0120343F010027B680C
:102E8C009A627B68DB6A43F001027B68DA62012399
:102E9C00FB7511E00024014000280140A0990008B6
:102EAC00FDF7E1FFFE0E1FFF7B689B6A43F01002EB
:102EBC007B689A620123FB75FB7D18461837BD466B
:102ECC0080BD00BF80B584B000AF78600023FB7379
:102EDC007B681B685C4A934209D07B681B685B4A21
:102EEC00934204D040F254415948FFF7C9F97B682A
:102EFC0093F82430012B01D10223A0E07B6801223E
:102F0C0083F82420786800F0B3FD0346FB73FB7B49
:102F1C00002B40F08F807B689B6A23F4706323F056
:102F2C00010343F480727B689A627B681B68474A92
:102F3C00934205D1444B5B6803F47023002B15D1ED
:102F4C007B689B6A23F480127B689A627B681B689F
:102F5C005B6803F48063002B26D07B689B6A23F4A8
:102F6C00405343F480527B689A621DE07B689B6AF5
:102F7C0043F480127B689A627B681B68324A9342E6
:102F8C0004D07B681B68314A93420DD12E4B5B6891
:102F9C0003F48063002B07D07B689B6A23F44053B7
:102FAC0043F480527B689A627B689B6A03F480537B
:102FBC00002B06D07B68DB6A23F006027B68DA62A2
:102FCC0002E07B680022DA627B68002283F824200E
:102FDC007B681B686FF002021A607B681B687A685A
:102FEC001268526842F020025A607B681B689B682A
:102FFC0003F46023B3F5602F13D17B681B68134A6D
:10300C00934205D1104B5B6803F47023002B08D15D
:10301C007B681B687A681268926842F4A0029A6016
:10302C000CE07B681B687A681268926842F4801224
:10303C009A6003E07B68002283F82420FB7B18460F
:10304C001037BD4680BD00BF002401400028014060
:10305C00A099000880B586B000AFF860B9607A60BE
:10306C000023FB75FB681B68694A934204D040F24D
:10307C00FC416848FFF704F9FB681B68644A9342FB
:10308C0004D0FB681B68644A934206D1604B5B68B2
:10309C0003F47023002B40F0B380FB6893F82430CA
:1030AC00012B01D10223AEE0FB68012283F824201E
:1030BC00F86800F0DDFC0346FB75FB7D002B40F04F
:1030CC009A80FB689B6A23F4706323F0010343F43A
:1030DC008072FB689A62FB681B684F4A934205D169
:1030EC004B4B5B6803F47023002B15D1FB689B6A78
:1030FC0023F48012FB689A62FB681B685B6803F41C
:10310C008063002B26D0FB689B6A23F4405343F466
:10311C008052FB689A621DE0FB689B6A43F4801244
:10312C00FB689A62FB681B68394A934204D0FB68BF
:10313C001B68394A93420DD1354B5B6803F48063AD
:10314C00002B07D0FB689B6A23F4405343F4805256
:10315C00FB689A62FB689B6A03F48053002B06D0D1
:10316C00FB68DB6A23F00602FB68DA6202E0FB68AC
:10317C000022DA62FB68002283F82420FB681B6AB9
:10318C00264A9A62FB681B6A254ADA62FB681B6A4C
:10319C00244A1A63FB681B686FF002021A60FB6812
:1031AC001B68FA681268926842F480729A60FB6835
:1031BC00186AFB681B684C331946BA687B6800F0C8
:1031CC00C9FFFB681B689B6803F46023B3F5602F91
:1031DC0008D1FB681B68FA681268926842F4A00276
:1031EC009A600FE0FB681B68FA681268926842F4F8
:1031FC0080129A6006E0FB68002283F8242001E02C
:10320C000123FB75FB7D18461837BD4680BD00BFFA
:10321C0000240140A099000800280140953B0008BB
:10322C00113C00082D3C000880B584B000AF7860DC
:10323C000023FB737B681B68234A934204D040F243
:10324C0089512248FFF71CF87B6893F82430012B36
:10325C0001D1022333E07B68012283F824207868B3
:10326C0000F058FC0346FB73FB7B002B22D17B68E0
:10327C001B687A681268926822F480729A607B6884
:10328C001B6A184600F0D4FF0346FB73FB7B002B34
:10329C000AD17B689B6A23F4885323F0010343F023
:1032AC0001027B689A6205E07B689B6A43F04002EE
:1032BC007B689A627B68002283F82420FB7B18468B
:1032CC001037BD4680BD00BF00240140A099000806
:1032DC0080B582B000AF78607B681B68724A9342FD
:1032EC0009D07B681B68714A934204D040F2D951D3
:1032FC006F48FEF7C5FF7B68DB68002B08D07B6846
:10330C00DB68012B04D040F2DA516948FEF7B8FFB4
:10331C007B681B69002B03D07B681B69102B04D9BD
:10332C0040F2DB516248FEF7ABFF7B681B685B68C1
:10333C0003F02003202B40D17B681B681B6803F033
:10334C000203022B39D17B689B6A03F01003002B1C
:10335C0005D17B689B6A43F400727B689A627B6838
:10336C001B689B6803F46023B3F5602F1DD17B6849
:10337C00DB68002B19D17B681B687A68126852686D
:10338C0022F020025A607B689B6A23F480727B686F
:10339C009A627B689B6A03F48053002B05D17B688F
:1033AC009B6A43F001027B689A627868FEF7CEFD57
:1033BC007B681B686FF012021A607B681B685B6885
:1033CC0003F08003802B4FD17B681B681B6803F0D4
:1033DC000403042B48D17B689B6A03F01003002B79
:1033EC0005D17B689B6A43F400527B689A627B68C8
:1033FC001B689B6803F4E043B3F5E04F12D07B6885
:10340C001B685B6803F48063002B25D17B681B6809
:10341C009B6803F46023B3F5602F1DD17B68DB68D8
:10342C00002B19D17B681B687A681268526822F0ED
:10343C0080025A607B689B6A23F480527B689A6294
:10344C007B689B6A03F48073002B05D17B689B6AB5
:10345C0043F001027B689A62786800F0FBFB7B68A2
:10346C001B686FF00C021A607B681B685B6803F0CA
:10347C004003402B14D17B681B681B6803F00103CD
:10348C00012B0DD17B689B6A43F480327B689A6276
:10349C007868FEF7DFFE7B681B686FF001021A602C
:1034AC0000BF0837BD4680BD002401400028014004
:1034BC00A099000880B483B000AF786000BF0C37CF
:1034CC00BD4680BC704780B483B000AF786000BF4D
:1034DC000C37BD4680BC704790B585B000AF7860A6
:1034EC0039600023FB730023BB607B681B68884A30
:1034FC00934209D07B681B68864A934204D040F201
:10350C00AA618548FEF7BCFE3B681B68002B48D0BF
:10351C003B681B68012B44D03B681B68022B40D0D6
:10352C003B681B68032B3CD03B681B68042B38D0D2
:10353C003B681B68052B34D03B681B68062B30D0CE
:10354C003B681B68072B2CD03B681B68082B28D0CA
:10355C003B681B68092B24D03B681B680A2B20D0C6
:10356C003B681B680B2B1CD03B681B680C2B18D0C2
:10357C003B681B680D2B14D03B681B680E2B10D0BE
:10358C003B681B680F2B0CD03B681B68102B08D0BA
:10359C003B681B68112B04D040F2AB615E48FEF710
:1035AC006FFE3B685B68012B40D03B685B68022B6D
:1035BC003CD03B685B68032B38D03B685B68042BC2
:1035CC0034D03B685B68052B30D03B685B68062BBE
:1035DC002CD03B685B68072B28D03B685B68082BBA
:1035EC0024D03B685B68092B20D03B685B680A2BB6
:1035FC001CD03B685B680B2B18D03B685B680C2BB2
:10360C0014D03B685B680D2B10D03B685B680E2BAD
:10361C000CD03B685B680F2B08D03B685B68102BA9
:10362C0004D040F2AC613C48FEF72AFE3B689B6834
:10363C00002B20D03B689B68012B1CD03B689B68FF
:10364C00022B18D03B689B68032B14D03B689B68FB
:10365C00042B10D03B689B68052B0CD03B689B68F7
:10366C00062B08D03B689B68072B04D040F2AD6159
:10367C002948FEF705FE7B6893F82430012B01D115
:10368C000223E2E07B68012283F824203B685B681C
:10369C00062B1CD87B6819687B681B68586B3B68C9
:1036AC005A6813469B001344053B1F2202FA03F38E
:1036BC00DB4318403B681C683B685A6813469B0008
:1036CC001344053B04FA03F303434B6342E03B68AA
:1036DC005B680C2B22D87B6819687B681B68186B9D
:1036EC003B685A6813469B001344233B1F2202FA83
:1036FC0003F3DB4318403B681C683B685A6813466D
:10370C009B001344233B04FA03F303430B6321E0B4
:10371C000024014000280140A09900087B6819682A
:10372C007B681B68D86A3B685A6813469B00134435
:10373C00413B1F2202FA03F3DB4318403B681C6831
:10374C003B685A6813469B001344413B04FA03F34D
:10375C000343CB623B681B68092B1CD97B68196837
:10376C007B681B68D8683B681A6813465B00134477
:10377C001E3B072202FA03F3DB4318403B689C68AC
:10378C003B681A6813465B0013441E3B04FA03F3B0
:10379C000343CB6019E07B6819687B681B68186968
:1037AC003B681A6813465B001344072202FA03F3C2
:1037BC00DB4318403B689C683B681A6813465B0007
:1037CC00134404FA03F303430B613B681B68102B8F
:1037DC0003D03B681B68112B32D17B681B681D4AD8
:1037EC00934225D17B681B689B6803F40003002B74
:1037FC0026D17B681B687A681268926842F40002D2
:10380C009A603B681B68102B1AD1134B1B68134A28
:10381C00A2FB03239A0C13469B0013445B00BB6072
:10382C0002E0BB68013BBB60BB68002BF9D107E031
:10383C007B689B6A43F020027B689A620123FB73CE
:10384C007B68002283F82420FB7B18461437BD4686
:10385C0090BD00BF002401400000002083DE1B430C
:10386C0080B582B000AF786039607B681B68794A9C
:10387C00934209D07B681B68774A934204D040F28C
:10388C0015717648FEF7FCFC3B681B68002B22D0B8
:10389C003B681B68724A93421DD03B681B68714A97
:1038AC00934218D03B681B686F4A934213D03B6815
:1038BC001B68B3F5000F0ED03B681B68B3F5800F87
:1038CC0009D03B681B68B3F5400F04D040F2167169
:1038DC006248FEF7D5FC3B689B68002B08D03B6820
:1038EC009B68012B04D040F217715C48FEF7C8FCB2
:1038FC003B68DB68B3F5805F04D34FF4E361574852
:10390C00FEF7BEFC3B681B69B3F5805F04D340F245
:10391C0019715248FEF7B4FC3B681B68504A93423D
:10392C0009D03B681B684F4A934204D03B681B6824
:10393C004D4A93424CD13B685B68002B48D03B68A6
:10394C005B68012B44D03B685B68022B40D03B6822
:10395C005B68032B3CD03B685B68042B38D03B681E
:10396C005B68052B34D03B685B68062B30D03B681A
:10397C005B68072B2CD03B685B68082B28D03B6816
:10398C005B68092B24D03B685B680A2B20D03B6812
:10399C005B680B2B1CD03B685B680C2B18D03B680E
:1039AC005B680D2B14D03B685B680E2B10D03B680A
:1039BC005B680F2B0CD03B685B68102B08D03B6806
:1039CC005B68112B04D040F21F712448FEF758FCA1
:1039DC007B6893F82430012B01D1022335E07B68FE
:1039EC00012283F824203B689B68012B08D17B685B
:1039FC001B687A681268526842F040025A6007E00D
:103A0C007B681B687A681268526822F040025A6020
:103A1C007B681A687B681B685968144B0B403968C3
:103A2C0008683968496801430B4353607B681B681D
:103A3C003A68D2685A627B681B683A6812699A6263
:103A4C007B68002283F82420002318460837BD46E3
:103A5C0080BD00BF0024014000280140A09900084F
:103A6C0000028000000240000002C000E0FD3FFFA9
:103A7C0080B584B000AF78600023FB600023BB608E
:103A8C007B681B689B6803F00103012B39D07B68B2
:103A9C001B687A681268926842F001029A601B4BAC
:103AAC001B681B4AA2FB03239B0CBB6002E0BB6898
:103ABC00013BBB60BB68002BF9D1FFF781F8F860C4
:103ACC0018E0FFF77DF80246FB68D31A022B11D9D8
:103ADC007B689B6A43F010027B689A627B68DB6AA6
:103AEC0043F001027B68DA627B68002283F82420B1
:103AFC00012307E07B681B689B6803F00103012B23
:103B0C00DFD1002318461037BD4680BD00000020D1
:103B1C0083DE1B4380B584B000AF78600023FB606C
:103B2C007B681B689B6803F00103012B27D17B6822
:103B3C001B687A681268926822F001029A60FFF79B
:103B4C003FF8F86014E0FFF73BF80246FB68D31A25
:103B5C00022B0DD97B689B6A43F010027B689A623A
:103B6C007B68DB6A43F001027B68DA62012307E0C1
:103B7C007B681B689B6803F00103012BE3D00023D7
:103B8C0018461037BD4680BD80B584B000AF786054
:103B9C007B685B6AFB60FB689B6A03F05003002B3D
:103BAC0027D1FB689B6A43F40072FB689A62FB683E
:103BBC001B689B6803F46023B3F5602F15D1FB6879
:103BCC00DB68002B11D1FB689B6A23F48072FB68C5
:103BDC009A62FB689B6A03F48053002B05D1FB6847
:103BEC009B6A43F00102FB689A62F868FEF7AEF933
:103BFC0004E0FB681B6A1B6B7868984700BF1037A2
:103C0C00BD4680BD80B584B000AF78607B685B6AD0
:103C1C00FB60F868FFF74EFC00BF1037BD4680BD57
:103C2C0080B584B000AF78607B685B6AFB60FB6832
:103C3C009B6A43F04002FB689A62FB68DB6A43F0C4
:103C4C000402FB68DA62F868FFF73DFC00BF10372E
:103C5C00BD4680BD80B483B000AF786000BF0C3728
:103C6C00BD4680BC7047000080B485B000AF786062
:103C7C007B6803F00703FB600C4BDB68BB60BA6826
:103C8C004FF6FF031340BB60FB681A02BB6813437B
:103C9C0043F0BF6343F40033BB60044ABB68D3609A
:103CAC0000BF1437BD4680BC704700BF00ED00E07C
:103CBC0080B400AF044BDB681B0A03F00703184603
:103CCC00BD4680BC704700BF00ED00E080B483B0FF
:103CDC0000AF0346FB71084997F907305B09FA7985
:103CEC0002F01F02012000FA02F241F8232000BF6B
:103CFC000C37BD4680BC704700E100E080B483B057
:103D0C0000AF03463960FB7197F90730002B0BDAD3
:103D1C000D49FB7903F00F03043B3A68D2B2120150
:103D2C00D2B20B441A7609E0084997F907303A6881
:103D3C00D2B21201D2B20B4483F8002300BF0C376D
:103D4C00BD4680BC704700BF00ED00E000E100E024
:103D5C0080B489B000AFF860B9607A60FB6803F09A
:103D6C000703FB61FB69C3F10703042B28BF042382
:103D7C00BB61FB690433062B02D9FB69033B00E0F2
:103D8C0000237B610122BB6902FA03F35A1EBB6854
:103D9C001A407B699A4001217B6901FA03F3591E91
:103DAC007B680B40134318462437BD4680BC7047D4
:103DBC0080B582B000AF78607B68013BB3F1807F47
:103DCC0001D301230FE00A4A7B68013B53600F21AA
:103DDC004FF0FF30FFF792FF054B00229A60044B27
:103DEC0007221A60002318460837BD4680BD00BF65
:103DFC0010E000E080B582B000AF78607B68072BE4
:103E0C000FD07B68062B0CD07B68052B09D07B6808
:103E1C00042B06D07B68032B03D0A2210448FEF7A9
:103E2C002FFA7868FFF720FF00BF0837BD4680BD2A
:103E3C00E099000880B586B000AF0346B9607A609F
:103E4C00FB7300237B617B680F2B03D9BA210E48CF
:103E5C00FEF716FABB680F2B03D9BB210A48FEF7F5
:103E6C000FFAFFF725FF78617A68B9687869FFF770
:103E7C006FFF024697F90F3011461846FFF73EFFC9
:103E8C0000BF1837BD4680BDE099000880B582B0F0
:103E9C0000AF0346FB7197F90730002B03DACE21F4
:103EAC000548FEF7EDF997F907301846FFF70EFFB6
:103EBC0000BF0837BD4680BDE099000880B582B0D0
:103ECC0000AF78607868FFF773FF03461846083731
:103EDC00BD4680BD80B582B000AF78607B68042B96
:103EEC0007D07B68002B04D040F2D9110B48FEF7A9
:103EFC00C7F97B68042B06D1094A094B1B6843F0B0
:103F0C000403136005E0064A054B1B6823F0040309
:103F1C00136000BF0837BD4680BD00BFE0990008A4
:103F2C0010E000E080B500AF00F002F800BF80BDEB
:103F3C0080B400AF00BFBD4680BC704780B584B074
:103F4C0000AF78600023FB607B68002B01D101235C
:103F5C00E6E07B681B68744A934221D07B681B683F
:103F6C00724A93421CD07B681B68714A934217D0EB
:103F7C007B681B686F4A934212D07B681B686E4A41
:103F8C0093420DD07B681B686C4A934208D07B68C7
:103F9C001B686B4A934203D0AA216A48FEF770F95A
:103FAC007B685B68002B0CD07B685B68102B08D09F
:103FBC007B685B68B3F5804F03D0AB216148FEF79B
:103FCC005FF97B689B68402B07D07B689B68002B54
:103FDC0003D0AC215B48FEF753F97B68DB68802B80
:103FEC0007D07B68DB68002B03D0AD215548FEF76A
:103FFC0047F97B681B69002B0DD07B681B69B3F5F7
:10400C00807F08D07B681B69B3F5007F03D0AE219D
:10401C004C48FEF735F97B685B69002B0DD07B684B
:10402C005B69B3F5806F08D07B685B69B3F5006F93
:10403C0003D0AF214348FEF723F97B689B69002B23
:10404C0007D07B689B69202B03D0B0213D48FEF73D
:10405C0017F97B68DB69002B12D07B68DB69B3F541
:10406C00805F0DD07B68DB69B3F5005F08D07B689F
:10407C00DB69B3F5405F03D0B1213248FEF700F99C
:10408C007B681B681A46304B1344304AA2FB03234F
:10409C001B099A007B681A647B682D4ADA637B687B
:1040AC00022283F821207B681B681B68FB60FB687D
:1040BC0023F47F5323F03003FB607B685A687B68E2
:1040CC009B681A437B68DB681A437B681B691A433D
:1040DC007B685B691A437B689B691A437B68DB6965
:1040EC001343FA681343FB607B681B68FA681A6019
:1040FC007B6800229A627B680022DA627B6800226D
:10410C001A637B6800225A637B6800229A637B687F
:10411C00012283F821207B68002283F820200023D1
:10412C0018461037BD4680BD080002401C000240F6
:10413C003000024044000240580002406C00024033
:10414C0080000240249A0008F8FFFDBFCDCCCCCCF7
:10415C000000024080B586B000AFF860B9607A60AC
:10416C003B600023FB753B68002B03D03B68B3F529
:10417C00803F04D34FF4C0712C48FEF781F8FB68E4
:10418C0093F82030012B01D102234AE0FB68012275
:10419C0083F82020FB6893F82130012B3AD1FB687F
:1041AC00022283F82120FB6800229A63FB681B68BB
:1041BC00FA681268126822F001021A603B687A6889
:1041CC00B968F86800F0EEF9FB68DB6A002B08D0E0
:1041DC00FB681B68FA681268126842F00E021A60DB
:1041EC000FE0FB681B68FA681268126822F0040280
:1041FC001A60FB681B68FA681268126842F00A02BF
:10420C001A60FB681B68FA681268126842F00102B7
:10421C001A6005E0FB68002283F820200223FB755E
:10422C00FB7D18461837BD4680BD00BF249A000898
:10423C0080B485B000AF78600023FB737B681B688B
:10424C007A681268126822F00E021A607B681B688A
:10425C007A681268126822F001021A607B68DB6BC4
:10426C007A68126C012101FA02F25A607B68012211
:10427C0083F821207B68002283F82020FB7B1846E2
:10428C001437BD4680BC704780B584B000AF7860F1
:10429C000023FB737B6893F82130022B05D07B68DD
:1042AC0004229A630123FB7357E07B681B687A68CE
:1042BC001268126822F00E021A607B681B687A681A
:1042CC001268126822F001021A60264A7B681B6889
:1042DC001946254B99422ED07B681B681946234BF7
:1042EC00994226D07B681B681946214B99421DD0F8
:1042FC007B681B6819461F4B994214D07B681B685E
:10430C0019461D4B99420BD07B681B6819461B4BF9
:10431C00994202D14FF480130EE04FF080730BE002
:10432C004FF4803308E04FF4805305E04FF4807372
:10433C0002E0102300E0012353607B68012283F824
:10434C0021207B68002283F820207B685B6B002B8C
:10435C0003D07B685B6B78689847FB7B18461037FB
:10436C00BD4680BD00000240080002401C00024017
:10437C003000024044000240580002406C000240F1
:10438C0080B584B000AF78607B68DB6B1B68FB602A
:10439C007B681B681B68BB607B681B6C04229A40A3
:1043AC00FB681340002B55D0BB6803F00403002BB3
:1043BC0050D07B681B681B6803F02003002B07D1CF
:1043CC007B681B687A681268126822F004021A6013
:1043DC006D4A7B681B6819466C4B99422ED07B68E2
:1043EC001B6819466A4B994226D07B681B68194694
:1043FC00684B99421DD07B681B681946664B9942E5
:10440C0014D07B681B681946644B99420BD07B68AF
:10441C001B681946624B994202D14FF480030EE09F
:10442C004FF080630BE04FF4802308E04FF480439F
:10443C0005E04FF4806302E0402300E00423536066
:10444C007B68DB6A002B00F09A807B68DB6A7868FB
:10445C00984794E07B681B6C02229A40FB681340DF
:10446C00002B5CD0BB6803F00203002B57D07B6899
:10447C001B681B6803F02003002B0BD17B681B68A7
:10448C007A681268126822F00A021A607B680122AC
:10449C0083F821203C4A7B681B6819463B4B9942A8
:1044AC002ED07B681B681946394B994226D07B6805
:1044BC001B681946374B99421DD07B681B681946FF
:1044CC00354B994214D07B681B681946334B994283
:1044DC000BD07B681B681946314B994202D14FF4C3
:1044EC0000130EE04FF000730BE04FF4003308E0C4
:1044FC004FF4005305E04FF4007302E0202300E07A
:10450C00022353607B68002283F820207B689B6A1F
:10451C00002B34D07B689B6A786898472FE07B68C7
:10452C001B6C08229A40FB681340002B28D0BB68F8
:10453C0003F00803002B23D07B681B687A68126891
:10454C00126822F00E021A607B68DB6B7A68126CC0
:10455C00012101FA02F25A607B6801229A637B689E
:10456C00012283F821207B68002283F820207B68BD
:10457C001B6B002B04D07B681B6B7868984700BFC3
:10458C0000BF1037BD4680BD00000240080002404D
:10459C001C0002403000024044000240580002401F
:1045AC006C00024080B485B000AFF860B9607A60EE
:1045BC003B60FB68DB6BFA68126C012101FA02F2BA
:1045CC005A60FB681B683A685A60FB685B68102B82
:1045DC0008D1FB681B687A689A60FB681B68BA682C
:1045EC00DA6007E0FB681B68BA689A60FB681B68B6
:1045FC007A68DA6000BF1437BD4680BC7047000093
:10460C0080B58AB000AF786039600023FB6100236D
:10461C00BB6100237B6100233B6200233B617B6811
:10462C00984A934213D07B68974A93420FD07B6889
:10463C00964A93420BD07B68954A934207D07B688D
:10464C00944A934203D0CD219348FDF719FE3B6861
:10465C001B689BB2002B05D03B681B681B0C1B0412
:10466C00002B03D0CE218C48FDF70AFE3B685B681B
:10467C00002B35D03B685B68012B31D03B685B6805
:10468C00112B2DD03B685B68022B29D03B685B68F3
:10469C00122B25D03B685B68804A934220D03B6844
:1046AC005B687F4A93421BD03B685B687D4A9342B0
:1046BC0016D03B685B687C4A934211D03B685B68C0
:1046CC007A4A93420CD03B685B68794A934207D094
:1046DC003B685B68032B03D0CF216F48FDF7D0FDFF
:1046EC0000237B62AAE101227B6A02FA03F3FB61DD
:1046FC003B681A68FB691340BB61BA69FB699A4253
:10470C0040F099817B685F4A934213D07B685E4A84
:10471C0093420FD07B685D4A93420BD07B685C4A16
:10472C00934207D07B685B4A934203D0DD215A4801
:10473C00FDF7A6FD3B685B68122B65D0122B0ED8DB
:10474C00022B4CD0022B04D8002B72D0012B1DD085
:10475C00B3E0032B00F0AE80112B2BD0ADE0504A10
:10476C00934266D04E4A934206D84C4A934260D04C
:10477C004D4A93425DD0A0E04A4A934259D04C4AEC
:10478C00934256D0494A934253D096E03B68DB683B
:10479C00022B0BD03B68DB68012B07D03B68DB6836
:1047AC00032B03D0E5213C48FDF76AFD3B68DB6831
:1047BC003B6282E03B68DB68022B0BD03B68DB681A
:1047CC00012B07D03B68DB68032B03D0EC2132486C
:1047DC00FDF756FD3B68DB6804333B626DE03B68DC
:1047EC00DB68022B0BD03B68DB68012B07D03B68E6
:1047FC00DB68032B03D0F3212748FDF741FD3B6811
:10480C00DB6808333B6258E03B68DB68022B0BD05B
:10481C003B68DB68012B07D03B68DB68032B03D0BC
:10482C00FA211D48FDF72CFD3B68DB680C333B621D
:10483C0043E03B689B68002B0CD03B689B68012BCA
:10484C0008D03B689B68022B04D040F20711124839
:10485C00FDF716FD3B689B68002B02D104233B62DD
:10486C002BE03B689B68012B05D108233B627B68DE
:10487C00FA691A6121E008233B627B68FA695A6184
:10488C001BE000BF00080140000C0140001001407B
:10489C000014014000180140649A00080000111037
:1048AC000000211000003110000012100000221036
:1048BC000000321000233B6200BFBB69FF2B01D804
:1048CC007B6801E07B680433FB60BB69FF2B02D87B
:1048DC007B6A9B0002E07B6A083B9B003B61FB68A8
:1048EC001A680F213B6901FA03F3DB431A40396A5A
:1048FC003B6901FA03F31A43FB681A603B685B6877
:10490C0003F08053002B00F09680504A4F4B9B696C
:10491C0043F0010393614D4B9B6903F00103BB60B2
:10492C00BB684B4A7B6A9B08023352F823307B618D
:10493C007B6A03F003039B000F2202FA03F3DB43B1
:10494C007A6913407B617B68424A934213D07B683F
:10495C00414A93420DD07B68404A934207D07B6812
:10496C003F4A934201D1032306E0042304E00223CF
:10497C0002E0012300E000237A6A02F003029200B5
:10498C0093407A6913437B6131497B6A9B080233FC
:10499C007A6941F823203B685B6803F48033002B71
:1049AC0006D030492F4B1A68BB6913430B6006E0E5
:1049BC002C492C4B1A68BB69DB4313400B603B68DA
:1049CC005B6803F40033002B06D02649254B5A684C
:1049DC00BB6913434B6006E02249224B5A68BB6902
:1049EC00DB4313404B603B685B6803F48013002B84
:1049FC0006D01C491B4B9A68BB6913438B6006E0BD
:104A0C001849184B9A68BB69DB4313408B603B68B1
:104A1C005B6803F40013002B06D01249114BDA68C3
:104A2C00BB691343CB6006E00E490E4BDA68BB69D9
:104A3C00DB431340CB607B6A01337B627B6A0F2BB9
:104A4C007FF651AE00BF2837BD4680BD0010024036
:104A5C000000014000080140000C01400010014022
:104A6C00001401400004014080B582B000AF7860B2
:104A7C000B467B8013467B707B88002B04D07B8895
:104A8C001B0C1B04002B04D040F2E3110E48FDF765
:104A9C00F7FB7B78002B07D07B78012B04D04FF4ED
:104AAC00F2710948FDF7ECFB7B78002B03D07A8878
:104ABC007B681A6103E07B881A047B681A6100BF6B
:104ACC000837BD4680BD00BF649A000880B582B02F
:104ADC0000AF0346FB80084B5A69FB881340002B40
:104AEC0006D0054AFB885361FB881846FDF73AFB54
:104AFC0000BF0837BD4680BD0004014080B582B0C0
:104B0C0000AF78600B46FB70FB78012B07D0FB786D
:104B1C00022B04D04FF4DC710A48FDF7B1FB0A4AB2
:104B2C00094B1B6923F004031361FB78012B01D1A2
:104B3C0030BF02E040BF20BF20BF00BF0837BD46DA
:104B4C0080BD00BFA49A000800ED00E080B586B0DF
:104B5C0000AF786000233B617B68002B04D14FF4DD
:104B6C00B8719F48FDF78CFB7B681B68002B1CD031
:104B7C007B681B6803F00103002B16D17B681B6854
:104B8C0003F00203002B10D17B681B6803F00803B1
:104B9C00002B0AD17B681B6803F00403002B04D1A3
:104BAC0040F271118E48FDF76BFB7B681B6803F0BC
:104BBC000103002B00F09A807B685B68002B0ED001
:104BCC007B685B68B3F5803F09D07B685B68B3F5A5
:104BDC00A02F04D040F277118148FDF751FB814B97
:104BEC005B6803F00C03042B0CD07E4B5B6803F06A
:104BFC000C03082B12D17B4B5B6803F48033B3F5A9
:104C0C00803F0BD1774B1B6803F40033002B6CD027
:104C1C007B685B68002B68D10123E8E27B685B68EA
:104C2C00B3F5803F06D16F4A6E4B1B6843F480335B
:104C3C0013602EE07B685B68002B0CD1694A694BD2
:104C4C001B6823F480331360664A664B1B6823F49D
:104C5C00802313601DE07B685B68B3F5A02F0CD13B
:104C6C00604A604B1B6843F4802313605D4A5D4BC4
:104C7C001B6843F4803313600BE05A4A594B1B6892
:104C8C0023F480331360574A564B1B6823F480235C
:104C9C0013607B685B68002B13D0FDF791FF3861C4
:104CAC0008E0FDF78DFF02463B69D31A642B01D94E
:104CBC0003239CE24B4B1B6803F40033002BF0D016
:104CCC0014E0FDF77DFF386108E0FDF779FF02463F
:104CDC003B69D31A642B01D9032388E2414B1B682F
:104CEC0003F40033002BF0D100E000BF7B681B689D
:104CFC0003F00203002B7FD07B681B69002B08D0CC
:104D0C007B681B69012B04D040F2AB113448FDF7D2
:104D1C00B7FA7B685B691F2B04D94FF4D671304806
:104D2C00FDF7AEFA2F4B5B6803F00C03002B0BD096
:104D3C002C4B5B6803F00C03082B1CD1294B5B68D4
:104D4C0003F48033002B16D1264B1B6803F00203AF
:104D5C00002B05D07B681B69012B01D0012346E297
:104D6C002049204B1B6823F0F8027B685B69DB0051
:104D7C0013430B6040E07B681B69002B20D01A4B5F
:104D8C0001221A60FDF71CFF386108E0FDF718FFDF
:104D9C0002463B69D31A022B01D9032327E2114B9C
:104DAC001B6803F00203002BF0D00E490D4B1B685F
:104DBC0023F0F8027B685B69DB0013430B601BE09C
:104DCC00094B00221A60FDF7FBFE38610EE0FDF77F
:104DDC00F7FE02463B69D31A022B07D9032306E2DE
:104DEC00E49A000800100240000042427D4B1B6810
:104DFC0003F00203002BEAD17B681B6803F0080365
:104E0C00002B40D07B689B69002B08D07B689B698A
:104E1C00012B04D04FF4F6717348FDF731FA7B681F
:104E2C009B69002B19D0714B01221A60FDF7C8FE4B
:104E3C00386108E0FDF7C4FE02463B69D31A022B29
:104E4C0001D90323D3E1674B5B6A03F00203002B08
:104E5C00F0D0012000F00CFC15E0644B00221A602D
:104E6C00FDF7AEFE386108E0FDF7AAFE02463B698D
:104E7C00D31A022B01D90323B9E15A4B5B6A03F015
:104E8C000203002BF0D17B681B6803F00403002B9A
:104E9C0000F0BF800023FB757B68DB68002B0CD017
:104EAC007B68DB68012B08D07B68DB68052B04D0A2
:104EBC0040F21B214C48FDF7E3F94A4BDB6903F048
:104ECC008053002B0DD1474A464BDB6943F080538E
:104EDC00D361444BDB6903F08053FB60FB68012317
:104EEC00FB75434B1B6803F48073002B18D1404AAD
:104EFC003F4B1B6843F480731360FDF761FE386110
:104F0C0008E0FDF75DFE02463B69D31A642B01D91C
:104F1C0003236CE1364B1B6803F48073002BF0D039
:104F2C007B68DB68012B06D12E4A2E4B1B6A43F0A3
:104F3C00010313622DE07B68DB68002B0CD1294A3E
:104F4C00284B1B6A23F001031362264A254B1B6A6C
:104F5C0023F0040313621CE07B68DB68052B0CD187
:104F6C00204A204B1B6A43F0040313621D4A1D4B5D
:104F7C001B6A43F0010313620BE01A4A194B1B6ABC
:104F8C0023F001031362174A164B1B6A23F0040328
:104F9C0013627B68DB68002B15D0FDF711FE3861BE
:104FAC000AE0FDF70DFE02463B69D31A41F2883246
:104FBC00934201D903231AE10A4B1B6A03F0020343
:104FCC00002BEED01CE0FDF7FBFD386112E0FDF785
:104FDC00F7FD02463B69D31A41F28832934209D954
:104FEC00032304E100100240E49A000880044242CA
:104FFC0000700040804B1B6A03F00203002BE6D1CB
:10500C00FB7D012B05D17C4A7B4BDB6923F0805364
:10501C00D3617B68DB69002B0CD07B68DB69012BCF
:10502C0008D07B68DB69022B04D040F2B9217348AD
:10503C00FDF726F97B68DB69002B00F0D7806E4BFF
:10504C005B6803F00C03082B00F0CE807B68DB69F7
:10505C00022B40F0B2807B681B6A002B09D07B6866
:10506C001B6AB3F5803F04D040F2C2216348FDF7C0
:10507C0007F97B685B6A002B4AD07B685B6AB3F5E7
:10508C00802F45D07B685B6AB3F5002F40D07B68DE
:10509C005B6AB3F5402F3BD07B685B6AB3F5801F2E
:1050AC0036D07B685B6AB3F5A01F31D07B685B6A36
:1050BC00B3F5C01F2CD07B685B6AB3F5E01F27D01B
:1050CC007B685B6AB3F5001F22D07B685B6AB3F523
:1050DC00101F1DD07B685B6AB3F5201F18D07B684E
:1050EC005B6AB3F5301F13D07B685B6AB3F5401F66
:1050FC000ED07B685B6AB3F5501F09D07B685B6A86
:10510C00B3F5601F04D040F2C3213C48FDF7B8F85A
:10511C003B4B00221A60FDF753FD386108E0FDF7A8
:10512C004FFD02463B69D31A022B01D903235EE0E3
:10513C00314B1B6803F00073002BF0D17B681B6AAA
:10514C00B3F5803F16D17B689B68002B09D07B6838
:10515C009B68B3F5003F04D040F2D9212748FDF7F6
:10516C008FF82549244B5B6823F400327B689B68DD
:10517C0013434B602048204B5B6823F474127B680C
:10518C00196A7B685B6A0B43134343601C4B012217
:10519C001A60FDF715FD386108E0FDF711FD0246B8
:1051AC003B69D31A022B01D9032320E0124B1B6855
:1051BC0003F00073002BF0D018E0114B00221A60A2
:1051CC00FDF7FEFC386108E0FDF7FAFC02463B698E
:1051DC00D31A022B01D9032309E0074B1B6803F0F8
:1051EC000073002BF0D101E0012300E000231846EE
:1051FC001837BD4680BD00BF00100240E49A00087D
:10520C006000424280B584B000AF78603960002302
:10521C00FB607B68002B04D140F22E318B48FDF7EC
:10522C002FF87B681B6803F00103002B16D17B68F9
:10523C001B6803F00203002B10D17B681B6803F082
:10524C000403002B0AD17B681B6803F00803002BB6
:10525C0004D140F22F317D48FDF712F83B68002B4A
:10526C000AD03B68012B07D03B68022B04D04FF4CB
:10527C004C717648FDF704F8754B1B6803F0070278
:10528C003B689A4210D27249714B1B6823F007029B
:10529C003B6813430B606E4B1B6803F007023B68C3
:1052AC009A4201D0012342E17B681B6803F00203A0
:1052BC00002B31D07B689B68002B24D07B689B68CB
:1052CC00802B20D07B689B68902B1CD07B689B68C4
:1052DC00A02B18D07B689B68B02B14D07B689B6884
:1052EC00C02B10D07B689B68D02B0CD07B689B6844
:1052FC00E02B08D07B689B68F02B04D040F249313E
:10530C005248FCF7BDFF5349524B5B6823F0F00247
:10531C007B689B6813434B607B681B6803F001033D
:10532C00002B7BD07B685B68002B0CD07B685B68A8
:10533C00012B08D07B685B68022B04D04FF45471AE
:10534C004248FCF79DFF7B685B68012B07D1414B02
:10535C001B6803F40033002B15D10123E7E07B68B5
:10536C005B68022B07D13B4B1B6803F00073002BCF
:10537C0009D10123DBE0374B1B6803F00203002B40
:10538C0001D10123D3E03349324B5B6823F0030294
:10539C007B685B6813434B60FDF712FCF8607B681D
:1053AC005B68012B12D10AE0FDF70AFC0246FB6890
:1053BC00D31A41F28832934201D90323B7E0254B2B
:1053CC005B6803F00C03042BEED127E07B685B6871
:1053DC00022B1DD10AE0FDF7F3FB0246FB68D31A42
:1053EC0041F28832934201D90323A0E0194B5B6848
:1053FC0003F00C03082BEED110E0FDF7E1FB0246A5
:10540C00FB68D31A41F28832934201D903238EE010
:10541C00104B5B6803F00C03002BEED10C4B1B689C
:10542C0003F007023B689A4216D90949084B1B68DE
:10543C0023F007023B6813430B60054B1B6803F01A
:10544C0007023B689A4207D0012370E0E49A0008F7
:10545C0000200240001002407B681B6803F004032C
:10546C00002B25D07B68DB68002B18D07B68DB68B1
:10547C00B3F5806F13D07B68DB68B3F5A06F0ED0EB
:10548C007B68DB68B3F5C06F09D07B68DB68B3F56C
:10549C00E06F04D04FF469712748FCF7F1FE2749FF
:1054AC00264B5B6823F4E0627B68DB6813434B603C
:1054BC007B681B6803F00803002B26D07B681B69F4
:1054CC00002B18D07B681B69B3F5806F13D07B68F9
:1054DC001B69B3F5A06F0ED07B681B69B3F5C06F69
:1054EC0009D07B681B69B3F5E06F04D040F2AB3197
:1054FC001148FCF7C5FE1149104B5B6823F4605250
:10550C007B681B69DB0013434B6000F01DF8014600
:10551C000A4B5B681B0903F00F03094AD35C21FAA1
:10552C0003F3084A13600020FDF708FB002318461C
:10553C001037BD4680BD00BFE49A00080010024041
:10554C00549C00080000002090B48AB000AF2A4B95
:10555C003C1D0FCB84E80F00284B1B883B8000239D
:10556C00FB610023BB6100237B6200237B61002372
:10557C003B62234B5B68FB61FB6903F00C03042B60
:10558C0002D0082B03D02DE01E4B3B622DE0FB69B3
:10559C009B0C03F00F0307F12802134413F8243C6F
:1055AC007B61FB6903F48033002B13D0144B5B68D5
:1055BC005B0C03F0010307F12802134413F8283C99
:1055CC00BB617B690F4A02FB03F2BB69B2FBF3F3CD
:1055DC007B6204E07B690C4A02FB03F37B627B6A0F
:1055EC003B6202E0074B3B6200BF3B6A1846283720
:1055FC00BD4690BC704700BF249B0008349B00083C
:10560C000010024000127A0000093D0080B400AF87
:10561C00024B1B681846BD4680BC7047000000203A
:10562C0080B500AFFFF7F2FF0146054B5B681B0A24
:10563C0003F00703034AD35C21FA03F3184680BD39
:10564C0000100240649C000880B500AFFFF7DEFF3D
:10565C000146054B5B68DB0A03F00703034AD35C86
:10566C0021FA03F3184680BD00100240649C000828
:10567C0080B485B000AF78600A4B1B680A4AA2FB65
:10568C0003235B0A7A6802FB03F3FB6000BFFB6831
:10569C005A1EFA60002BF9D100BF1437BD4680BCEE
:1056AC00704700BF00000020D34D621080B586B05B
:1056BC0000AF786000233B610023FB607B681B68B4
:1056CC0003F00103002B0FD17B681B6803F002036E
:1056DC00002B09D17B681B6803F01003002B03D14E
:1056EC007C217348FCF7CCFD7B681B6803F001033D
:1056FC00002B00F095807B685B68002B12D07B68D8
:10570C005B68B3F5807F0DD07B685B68B3F5007F79
:10571C0008D07B685B68B3F5407F03D08221644876
:10572C00FCF7AEFD0023FB75624BDB6903F0805385
:10573C00002B0DD15F4A5F4BDB6943F08053D36183
:10574C005C4BDB6903F08053BB60BB680123FB75CA
:10575C00594B1B6803F48073002B18D1564A564BD7
:10576C001B6843F480731360FDF72AFA386108E074
:10577C00FDF726FA02463B69D31A642B01D90323A1
:10578C0092E04D4B1B6803F48073002BF0D0494B17
:10579C001B6A03F44073FB60FB68002B2ED07B6804
:1057AC005B6803F44072FB689A4227D0414B1B6A3A
:1057BC0023F44073FB60414B01221A603F4B0022E3
:1057CC001A603C4AFB681362FB6803F00103002B70
:1057DC0014D0FDF7F5F938610AE0FDF7F1F902464E
:1057EC003B69D31A41F28832934201D903235BE01F
:1057FC00304B1B6A03F00203002BEED02D492D4BCE
:10580C001B6A23F440727B685B6813430B62FB7D5D
:10581C00012B05D1274A274BDB6923F08053D36139
:10582C007B681B6803F00203002B1FD07B689B680E
:10583C00002B12D07B689B68B3F5804F0DD07B6832
:10584C009B68B3F5004F08D07B689B68B3F5404F5D
:10585C0003D0C9211648FCF713FD1649154B5B689C
:10586C0023F440427B689B6813434B607B681B6846
:10587C0003F01003002B16D07B68DB68B3F5800FA8
:10588C0008D07B68DB68002B04D040F22511084857
:10589C00FCF7F6FC0749074B5B6823F480027B6836
:1058AC00DB6813434B60002318461837BD4680BD98
:1058BC00389B000800100240007000404004424237
:1058CC0080B582B000AF78607B68002B01D10123DA
:1058DC006BE07B681B68374A934212D07B681B686D
:1058EC00B3F1804F0DD07B681B68334A934208D0CC
:1058FC007B681B68314A934203D0D5213048FCF7B2
:10590C00BFFC7B689B68002B13D07B689B68102BBB
:10591C000FD07B689B68202B0BD07B689B68402B3F
:10592C0007D07B689B68602B03D0D6212448FCF7FA
:10593C00A7FC7B681B69002B0DD07B681B69B3F53A
:10594C00807F08D07B681B69B3F5007F03D0D7211B
:10595C001B48FCF795FC7B689B69002B07D07B6888
:10596C009B69802B03D0D8211548FCF789FC7B68F8
:10597C0093F83D30DBB2002B06D17B68002283F814
:10598C003C207868FCF712FF7B68022283F83D20EC
:10599C007B681A687B6804331946104601F036FDA3
:1059AC007B68012283F83D20002318460837BD464A
:1059BC0080BD00BF002C01400004004000080040E6
:1059CC00909B000880B582B000AF78607B681B6844
:1059DC00154A934213D07B681B68B3F1804F0ED0ED
:1059EC007B681B68114A934209D07B681B68104A7C
:1059FC00934204D040F25D110E48FCF741FC7B68E9
:105A0C001B687A681268D26842F00102DA607B681F
:105A1C001B687A681268126842F001021A6000234F
:105A2C0018460837BD4680BD002C014000040040DC
:105A3C0000080040909B000880B582B000AF7860F1
:105A4C007B68002B01D101236FE07B681B68394A0E
:105A5C00934213D07B681B68B3F1804F0ED07B68E8
:105A6C001B68354A934209D07B681B68334A9342C2
:105A7C0004D040F2E2313248FCF702FC7B689B68B0
:105A8C00002B14D07B689B68102B10D07B689B6814
:105A9C00202B0CD07B689B68402B08D07B689B68C4
:105AAC00602B04D040F2E3312548FCF7E9FB7B681E
:105ABC001B69002B0ED07B681B69B3F5807F09D066
:105ACC007B681B69B3F5007F04D04FF479711C48D7
